:020000040800F2
:10000000F807002001010008090100080B010008A1
:100010000D0100080F010008110100080000000098
:1000200000000000000000000000000013010008B4
:10003000150100080000000017010008F511000874
:100040001B0100081B0100081B0100081B01000820
:100050001B0100081B0100081B0100081B01000810
:100060001B0100081B0100081B0100081B01000800
:100070001B0100081B0100081B0100081B010008F0
:100080001B0100081B0100081B0100081B010008E0
:100090001B0100081B0100081B0100081B010008D0
:1000A0001B0100081B0100081B0100081B010008C0
:1000B0001B0100081B0100081B0100081B010008B0
:1000C0001B0100081B0100081B0100081B010008A0
:1000D0001B0100081B0100081B0100081B01000890
:1000E0001B0100081B0100081B010008DFF80CD0F1
:1000F00000F08AFB00480047D5290008F8070020D7
:100100000648804706480047FEE7FEE7FEE7FEE7B1
:10011000FEE7FEE7FEE7FEE7FEE7FEE74512000822
:10012000ED0000082DE9FE4F804681EA0300C00F74
:100130000C46009021F0004123F00045B8EB02008E
:10014000A94105D24046214690461C460B46024630
:1001500023F00040104347D0270DC7F30A00C3F334
:100160000A510290401A019040286BDAC3F3130041
:1001700040F4801B0098924620B10023D2EB030A82
:1001800063EB0B0B01985946C0F14002504600F05A
:1001900046FA06460D4650465946019A00F05EFA68
:1001A00010EB08006141002487EA115284EAE773EA
:1001B0001A4340D0009A62B3019A012A4FEA0752CB
:1001C00015DC001B61EB02014FF0004202EA07520E
:1001D000CDE90042001C41F5801132462B4600F06B
:1001E00095FA03B0BDE8F08F40462146F9E7001BC1
:1001F00061EB0201001C41F5801300185B412018DF
:10020000A2F5001747EB030140EAD570B6196D411E
:1002100011E06D084FEA360645EAC0754FEA07520D
:10022000001B61EB0201001C41F5801149084FEAF7
:1002300030000019514132462B4603B0BDE8F04F63
:1002400000F055BA0098012240000023D0EB0202D2
:1002500063EBE073009821464FEAE074B8EB0000CE
:1002600061EB0401E9E783F000435BE781F00041C3
:1002700058E72DE9FE4F81EA030404F0004421F021
:10028000004100944FF0000B23F0004350EA0104BA
:100290005ED052EA03045BD0C3F30A54C1F30A559B
:1002A0002C44A4F2F3340194A0FB0254C1F31301D3
:1002B00041F48011C3F3130343F4801301FB0244A0
:1002C00000FB034E840A970A44EA815447EA8357A5
:1002D000A4FB076802958D0A05FB07854FEA932C5E
:1002E00004FB0C542705029D4FEA065847EA1637CF
:1002F000B5EB08056EEB070C870E920E47EA8117E7
:1003000042EA8312A7FB0201B6EB0B0164EB000487
:100310002B0D43EA0C335E1844EB1C50DA46514671
:10032000E7FB0201C5F313044FEA0B3343EA14530E
:100330004FEA0432019C43EA0603A4F10C04029440
:10034000009CCDE900B400F0E1F903B0BDE8F08F06
:1003500000200146F9E72DE9F04D81EA030404F09D
:10036000004B21F0004514464FF0000A23F00041F5
:1003700050EA050220D054EA01021DD0C5F30A5705
:100380000246C5F31303C1F31300C1F30A5640F448
:10039000801543F48013A7EB0608101BD64608F21D
:1003A000FD3873EB050002D308F1010801E0921853
:1003B0005B41B8F1000F03DA00200146BDE8F08D83
:1003C00000204FF48011064684460EE0171B73EBA5
:1003D000050705D3121B63EB050306434CEA010C2A
:1003E00049084FEA300092185B4150EA0107EDD10D
:1003F00052EA030012D082EA040083EA05010843AE
:1004000005D0101BAB4106D20122002306E00022DA
:100410004FF0004302E06FF0010253101AEB0600A8
:100420004CEB085110EB0A0041EB0B01BDE8F04D1D
:1004300000F05DB9C10F80EAE0700844CA07962356
:10044000002100F026B90EB5C10F80EAE070084423
:10045000CA07002140F233438DE80E000A460B46DE
:1004600000F054F903B000BD0EB540F233410291E3
:100470000021CDE900110A460B4600F047F903B010
:1004800000BD3EB5CA17CB0F002450405140C018E4
:100490006141DA0740F233430094CDE9012322465B
:1004A000234600F033F903B030BD70B5C1F30A52F2
:1004B00001F000450024C1F3130140F2FF3341F481
:1004C00080119A4201DA002070BD40F233439A4213
:1004D000A2F2334203DC524200F0B0F800E0904058
:1004E0002C43F1D0404270BD70B5C1F30A5201F007
:1004F00000450024C1F3130140F2FF3341F48011A1
:100500009A4202DA0020014670BD40F233439A421B
:10051000A2F2334203DC524200F090F801E000F016
:100520007EF82C43F0D00023D0EB030063EB0101F5
:1005300070BD00F0004230F000400AD0C10D01F55E
:100540006071C0F3160042EA0151C208400711432E
:10055000704700200146704701F0004330B421F09D
:10056000004150EA010206D00A0DA2F56072C1F303
:100570001301002A02DC30BC00207047440F44EA1B
:10058000C104C100E01830BC00EBC25000F078B8E4
:1005900030B50B46014600202022012409E021FA53
:1005A00002F59D4205D303FA02F5491B04FA02F550
:1005B0002844151EA2F10102F1DC30BD2DE9F05FE7
:1005C0000546002092469B468846064681464024C2
:1005D0001BE0284641464746224600F02FF8534686
:1005E0005A46C01A914110D311461846224600F0CF
:1005F00016F82D1A67EB01084F462246012000210C
:1006000000F00DF817EB00094E41201EA4F1010483
:10061000DFDC484631462A464346BDE8F09F202AA3
:1006200004DB203A00FA02F1002070479140C2F149
:10063000200320FA03F3194390407047202A04DB7B
:10064000203A21FA02F00021704721FA02F3D0404B
:10065000C2F120029140084319467047202A06DB68
:10066000CB17203A41FA02F043EAE07306E041FA80
:1006700002F3D040C2F1200291400843194670476E
:100680000029A8BF7047401C490008BF20F00100A6
:10069000704710B4B0FA80FC00FA0CF050EA010484
:1006A00004BF10BC704749B1CCF1200421FA04F416
:1006B00011FA0CF118BF012121430843A3EB0C01EF
:1006C000CB1D4FEA00614FEA102042BF002010BC52
:1006D000704700EBC35010440029A4BF10BC704702
:1006E000401C490008BF20F0010010BC704710B545
:1006F000141E73F1000408DA401C41F10001921845
:100700005B411A4301D120F0010010BD2DE9F04DED
:1007100092469B4611B1B1FA81F202E0B0FA80F242
:1007200020329046FFF77BFF04460F4640EA0A005E
:1007300041EA0B0153465A46084313D0114653EA87
:10074000010019D0C8F140025046FFF777FF054677
:100750000E46504659464246FFF761FF084305D012
:10076000012004E020463946BDE8F08D0020054315
:1007700046EAE0762C4337430A986305E40AA0EB87
:1007800008000022FD0A44EA47540A3002D500203E
:100790000146E9E7010510196941DDE9084500193D
:1007A0006941BDE8F04DA2E7C1F30A52C1F313015C
:1007B00040F2FF3341F480119A4202DA00200146F0
:1007C000704740F233439A42A2F2334202DC524273
:1007D000FFF734BFFFF723BF30B5041E71F10004EB
:1007E00004DB4FF00044404264EB0101141E73F13E
:1007F000000405DB1C464FF00043524263EB040348
:10080000994208BF904230BD064C074D06E0E068B3
:1008100040F0010394E8070098471034AC42F6D347
:10082000FFF768FCB4350008D43500080146002005
:100830000022044B1B6803EA01020AB1012000E018
:1008400000207047000401400549096821F01001AB
:10085000034A1160114609680143116070470000A6
:100860000020024001460020034A106800F03800D2
:1008700008431060704700000020024008B50121C5
:100880001D2000F0E5F94FF6FF70ADF800000020E4
:100890008DF803006946144800F02EF869461348A5
:1008A00000F02AF86946124800F026F801211148A4
:1008B00000F0AEF84FF48040ADF8000004208DF851
:1008C00003006946094800F017F80220ADF800005F
:1008D00010208DF8030003208DF8020069460348BC
:1008E00000F00AF8002008BD00080140000C01409B
:1008F00000100140000230002DE9F04102460025C1
:100900000026002000230024002791F803C00CF0EB
:100910000F0591F803C00CF0100CBCF1000F03D0D0
:1009200091F802C04CEA050591F800C0BCF1000F37
:1009300031D0146800202BE04FF0010C0CFA00F3CA
:10094000B1F800C00CEA03069E4220D183004FF0AC
:100950000F0C0CFA03F7BC4305FA03FC4CEA040441
:1009600091F803C0BCF1280F06D14FF0010C0CFA2E
:1009700000FCC2F814C00AE091F803C0BCF1480FB3
:1009800005D14FF0010C0CFA00FCC2F810C0401C5D
:100990000828D1D31460B1F800C0BCF1FF0F34DDDA
:1009A000546800202EE000F1080C4FF0010808FA0E
:1009B0000CF3B1F800C00CEA03069E4221D183007B
:1009C0004FF00F0C0CFA03F7BC4305FA03FC4CEA9A
:1009D000040491F803C0BCF1280F05D100F1080C04
:1009E00008FA0CF8C2F8148091F803C0BCF1480F63
:1009F00007D100F1080C4FF0010808FA0CF8C2F812
:100A00001080401C0828CED35460BDE8F08100005F
:100A1000F0B50A46002300240021002500F000461E
:100A2000B6F1004F02D11D4EF16901E01B4E716815
:100A3000C0F3034583B200F44016B6F5401F08D159
:100A400021F07061154E766826F07066134F7E6057
:100A500012E000F48016B6F5801F06D1032606FAD0
:100A600005F4A14341F0706106E0460D360103FA3A
:100A700006F6B14341F0706122B1460D360103FA2A
:100A800006F6314300F00046B6F1004F02D1034EA6
:100A9000F16101E0014E7160F0BD00000000014015
:100AA00002460020D3680B400BB1012000E000207B
:100AB0007047416170470161704770B504460D464B
:100AC00029462046FFF7ECFF08B9012000E000208E
:100AD000064632462946204600F001F870BD0AB1AC
:100AE000016100E0416170472DE9F34F83B00C468E
:100AF0000398FFF7A8FC07464FF03332104BFFF77F
:100B0000B8FB05460E460F4951F82400FFF79BFC41
:100B100007464FF066320C4BFFF7ABFB2A463346D5
:100B2000CDE90001FFF7FEFA8246FFF7BEFC8146E1
:100B3000044840F82490484605B0BDE8F08F000016
:100B40003333D33F480100206666E63F70B500218D
:100B500000230F22C47804B3154C246804F4E06425
:100B6000C4F5E064210AC1F10403CA40447804FAE0
:100B700003F184781440214309010E4C0678A155F5
:100B8000047804F01F050124AC4005786D11AD0018
:100B900005F1E025C5F8004109E0047804F01F05DF
:100BA0000124AC40044D0678761145F8264070BD0E
:100BB0000CED00E000E400E080E100E002490143C8
:100BC000024A1160704700000000FA050CED00E0D9
:100BD00010B5002807DA0A07140E054A00F00F03C3
:100BE0001B1FD45403E00A07130E024A135410BD0E
:100BF00018ED00E000E400E001460020034A5068E0
:100C000020F440400843506070470000001002404C
:100C100029B1064AD2690243044BDA6104E0034A6F
:100C2000D2698243014BDA61704700000010024034
:100C300029B1064A12690243044B1A6104E0034ACF
:100C400012698243014B1A61704700000010024094
:100C500029B1064A92690243044B9A6104E0034AAF
:100C600092698243014B9A61704700000010024074
:100C700029B1064AD2680243044BDA6004E0034A11
:100C8000D2688243014BDA607047000000100240D6
:100C900010B586B000F030F84FF4803000F0E8F87E
:100CA00000F024F90446ACB100F0CCFA1020FFF7B4
:100CB000CBFD0220FFF7D6FD002000F0CDF800208C
:100CC00000F008F94FF4806000F0F8F84FF40040AD
:100CD000FFF792FF01A800F035F801210803FFF7A4
:100CE000B7FF01218803FFF793FF01217D20FFF764
:100CF000AFFF002006B010BD0F48006840F00100B3
:100D00000D490860084640680C4908400A49486097
:100D1000084600680A490840074908600846006814
:100D200020F4802008600846406820F4FE004860F7
:100D30004FF41F0088607047001002400000FFF869
:100D4000FFFFF6FE30B500210022002400232D4DC8
:100D50006D6805F00C0121B1042905D0082923D1C3
:100D600005E0294D056022E0284D05601FE0254D76
:100D70006D6805F47012234D6D6805F4803402250A
:100D800005EB92421CB9224D554305600BE01D4D09
:100D90006D6805F400351DB11B4D5543056002E03B
:100DA0001A4D5543056002E0174D056000BF00BFB6
:100DB000144D6D6805F0F0010909164D6B5C05686E
:100DC000DD4045600F4D6D6805F4E061090A114D85
:100DD0006B5C4568DD4085600A4D6D6805F46051C7
:100DE000C90A0C4D6B5C4568DD40C560054D6D68FA
:100DF00005F44041890B084D6B5CC568B5FBF3F504
:100E0000056130BD0010024000127A000024F40099
:100E100000093D00F40000200401002010B5014647
:100E20000022002300204A11012A02D1094C236824
:100E300006E0022A02D1074C236A01E0054C636AEE
:100E400001F01F02012494401C400CB1012000E07D
:100E5000002010BD0010024001460020034A5068E7
:100E600020F0F0000843506070470000001002407E
:100E70001149096821F480310F4A1160114609684F
:100E800021F480211160B0F5803F03D0B0F5802FB0
:100E90000ED106E00849096841F48031064A116024
:100EA00007E00549096841F4A021034A116000E008
:100EB00000BF00BF70470000001002400146002044
:100EC000034A506820F4E060084350607047000017
:100ED0000010024001460020034A506820F4605090
:100EE00040EAC100506070470010024038B5002051
:100EF00000900024002500BF3120FFF78FFF05463A
:100F00000098401C00900098B0F5A06F01D0002D13
:100F1000F2D03120FFF782FF08B1012400E0002465
:100F2000204638BD01460020044A10884FF6C7729B
:100F300010400843014A1080704700000030014013
:100F400021B1028842F04002028004E002884FF69C
:100F5000BF731A400280704700B587B0294800F07F
:100F600055F80020ADF808004FF48270ADF80A0083
:100F70000020ADF80C00ADF80E00ADF810004FF4F5
:100F80000070ADF812001020ADF814000020ADF88C
:100F900016000720ADF8180002A91A4800F062F800
:100FA000A020ADF8040018208DF8070003208DF86C
:100FB000060001A91448FFF79FFC4020ADF804008B
:100FC00048208DF8070001A90F48FFF795FC102075
:100FD000ADF804008DF8070003208DF8060001A984
:100FE0000948FFF789FC0021064800F059F8012163
:100FF0000448FFF7A5FF10210348FFF75CFD002020
:1010000007B000BD003001400008014010B50446A3
:101010001148844208D101218014FFF729FE0021E4
:10102000A014FFF725FE16E00C48844208D10121E8
:101030000014FFF7FDFD00212014FFF7F9FD0AE081
:101040000748844207D10121C013FFF7F1FD0021B9
:10105000E013FFF7EDFD10BD003001400038004007
:10106000003C004010B50022028802F441520B8877
:101070004C8823438C882343CC8823430C89234307
:101080004C8923438C892343CC8923431A43028010
:10109000838B4FF2FF74234083830B8A038210BD3E
:1010A00021B1828842F00402828004E082884FF6F7
:1010B000FB731A408280704710B500F001F810BD34
:1010C0000CB50020019000903348006840F4803057
:1010D0003149086000BF3048006800F400300090DB
:1010E0000198401C0190009818B90198B0F5A06FC4
:1010F000F1D12948006800F4003010B101200090BF
:1011000001E0002000900098012843D123480068A6
:1011100040F01000214908600846006820F00300F4
:1011200008600846006840F0020008601A484068FD
:10113000194948600846406848600846406840F4DD
:10114000806048600846406820F47C10486008468B
:10115000406840F4F81048600846006840F080702D
:10116000086000BF0C48006800F000700028F9D04B
:101170000948406820F00300074948600846406875
:1011800040F00200486000BF0348406800F00C00D7
:101190000828F9D10CBD00000010024000200240D8
:1011A00010B5134800684FF47A71B0FBF1F4B4F154
:1011B000807F01D3012011E024F07F40401E4FF0DA
:1011C000E02148610F214FF0FF30FFF701FD0020C3
:1011D0004FF0E021886107200861002008B100BFBE
:1011E000FEE70521881FFFF7F3FC002010BD00007B
:1011F000080100200F480068401C0E4908600E4896
:101200000068401C0C4908600846006842F21071F2
:1012100088420ED900BF0948006800F4E060084920
:101220000843001D05490860BFF3408F00BF00BFA1
:10123000FEE77047EC000020F00000200CED00E01D
:101240000000FA0510B51348006840F0010011498C
:10125000086008464068104908400E494860084642
:1012600000680E4908400B4908600846006820F4F1
:10127000802008600846406820F4FE0048604FF473
:101280001F008860FFF718FF4FF0006004490860F6
:1012900010BD0000001002400000FFF8FFFFF6FE46
:1012A00008ED00E010B50446A1B2054800F0B4F81E
:1012B00000BF4021024800F011F80028F9D010BD0D
:1012C0000048004021B1828942F40052828104E04A
:1012D00082894DF6FF731A408281704702460020D2
:1012E000B1F5007F00D100BF13880B400BB1012086
:1012F00000E000207047F0B50346002400260025DA
:10130000002040F66A17B94200D100BF1846C1F369
:10131000421401F01F06012707FA06F5012C01D13E
:101320000C3004E0022C01D1103000E014301AB16E
:1013300007682F43076002E00768AF430760F0BD0E
:101340002DE9F04786B005460E460024A24600BFB0
:10135000A1460027B08900B100BF2F462C8A4CF669
:10136000FF700440F08804432C82AC894EF6F310E1
:101370000440B08831890843718908430443AC8133
:10138000AC8A4FF6FF400440B0890443AC8201A808
:10139000FFF7D8FC1F48874202D1DDF810A001E01A
:1013A000DDF80CA0A88900F4004040B10AEBCA00A7
:1013B00000EB0A1031684900B0FBF1F807E00AEBD6
:1013C000CA0000EB0A1031688900B0FBF1F8642014
:1013D000B8FBF0F004012009642101FB1089A88901
:1013E00000F4004040B1322000EBC900B0FBF1F046
:1013F00000F00700044308E0322000EB09106421EC
:10140000B0FBF1F000F00F0004432C8106B0BDE802
:10141000F087000000380140C1F308028280704765
:1014200010B586B0044601210820FFF711FC012108
:101430008804FFF7EDFB4FF40060ADF800002820B2
:101440008DF8030069461F48FFF756FA4FF4806095
:10145000ADF8000003208DF8020018208DF803007D
:1014600069461848FFF748FA02940020ADF80C00CE
:10147000ADF80E00ADF81000ADF814000C20ADF87A
:10148000120002A91048FFF75BFF4FF4E060FFF77E
:1014900095FB27208DF8040000208DF80600012020
:1014A0008DF8070001A8FFF751FB012240F22551FA
:1014B0000548FFF720FF01210348FFF703FF06B0AF
:1014C00010BD0000000C01400048004070B505460A
:1014D0000E46002403E0285DFFF7E4FE641CB442DE
:1014E000F9D370BD0FB4054B10B503A9044A029897
:1014F00000F0ACF910BC5DF814FB0000592900089D
:101500001C0100200FB4084B10B504A902AA0398CF
:1015100000F09CF9044602A9002000F02EFD2046B0
:1015200010BC5DF814FB00007B1F000802E008C837
:10153000121F08C1002AFAD170477047002001E04D
:1015400001C1121F002AFBD1704738B504466D2037
:1015500000906B46012240F606012E2001F06BF947
:101560003CB140F2076241F606012E2001F038F945
:1015700006E041F2076241F606012E2001F030F943
:1015800038BD38B504466B4602220021362000F0F3
:10159000E3FF0E2C57D2DFE804F011071A56565617
:1015A00056233256563F464D00208DF800009DF8D8
:1015B000010000F0FE008DF8010045E09DF80000FC
:1015C00000F0FC0040F001008DF800003CE09DF8C8
:1015D000000000F0FC0040F002008DF8000033E055
:1015E0009DF8000000F0B30040F048008DF80000C6
:1015F0009DF8010040F080008DF8010024E09DF886
:10160000000000F0B3008DF800009DF8010000F02C
:101610007F008DF8010017E09DF8010040F0020006
:101620008DF8010010E09DF8010000F0FD008DF83C
:10163000010009E09DF8000000F0CF0040F020001C
:101640008DF8000000E000BF00BF6B4601220021C2
:10165000362001F0F0F80DF1010301221146362089
:1016600001F0E9F838BD08B503208DF8010001202C
:101670008DF800006B4602220021362001F0DBF8D5
:101680004FF4004206212D2001F0AAF8012000F0BD
:1016900079FC0120FFF775FF08BD38B50446200A24
:1016A0008DF80100E0B28DF800006B4602220421A3
:1016B0002D2001F0C0F803208DF800006B460122B8
:1016C00006212D2001F0B7F800208DF800006B46B0
:1016D000012206212D2001F0AEF80A212D2000F074
:1016E00019FF0546284638BD2DE9FF5FDDE90220D8
:1016F000010DDDF838B0024318D044F61050A1F2C5
:10170000FF3141430D140F98012820D0A5EB0B00A9
:10171000401C5FEA000A4FF00004474EDFF81C91BE
:10172000A046504616D5CAF1000728E00F980124BC
:1017300043A2012808D0002100980F9BC0E9002196
:10174000C0E90243BDE8FF9F6FEA0B01F4E7CBF16C
:101750000000DEE7074612E0F80707D022463346CE
:1017600040464946FEF785FD804689462246334677
:1017700010461946FEF77DFD04460E467F10002FE9
:10178000EAD1DDE90201BAF1000F42464B4602DA26
:10179000FEF76FFD01E0FEF7DEFD04460E46002277
:1017A000284BFFF719F803D84FF0FF30014607E048
:1017B0000022254B20463146FEF7B4FCFEF7F4FF2D
:1017C000102409E0002C0ADB0A220023FEF7F6FEB3
:1017D000019B30321A55641E50EA0102F2D1641C9A
:1017E000019AC4F1110314440F9A012A03D0012273
:1017F00008430DD10AE0084304D000204FF0110B3C
:101800000F9080E7A3EB0B056D1E0DE05B4504DD3B
:101810004FF0000205F1010504E003DA4FF0000289
:10182000A5F10105002AECD000980F99C0E902311A
:10183000C0E9004586E70000000024400000F03FBA
:10184000300000000000F0430000E03F2DE9FF4FB2
:1018500095B09B468946064600250FE2252877D19C
:1018600000242746F84A0121059400E0044316F8B5
:10187000013F203B01FA03F01042F7D130782A28CB
:1018800011D06FF02F033078A0F13002092A16D85A
:10189000059A44F0020402EB820203EB4202104478
:1018A000761C0590EFE759F8042B0592002A03DA1D
:1018B000504244F40054059044F00204761C307801
:1018C0002E2816D116F8010F44F004042A280DD052
:1018D0006FF02F023078A0F13003092B09D807EB05
:1018E000870302EB4303C718761CF3E759F8047B20
:1018F000761C30786C280FD006DC4C2817D068286E
:101900000DD06A2814D104E0742810D07A280FD1A1
:101910000DE044F400140AE044F4801401E044F4BF
:1019200040147278824202D104F58014761C761C31
:10193000307866280BD013DC582877D009DC0028D3
:1019400075D04528F6D04628F4D047281AD19DE115
:1019500018E0632835D0642879D0652812D195E144
:10196000702873D008DC6728F1D069286FD06E2802
:101970000DD06F2806D1B5E073282CD0752875D00E
:10198000782874D05A46179990476D1C75E1C4F3B6
:101990000250022809D003280DD0D9F800100428DD
:1019A0000DD00D6009F1040967E1D9F80010EA17BC
:1019B000C1E90052F6E7D9F800100D80F2E70D708A
:1019C000F0E719F8041B8DF8001000208DF80100D5
:1019D000EA46012003E059F804AB4FF0FF306107FD
:1019E0004FF0000102D40DE008F101018846B94230
:1019F0000FDA8045F8DB1AF808100029F4D108E066
:101A000008F1010188468142FADB1AF80810002922
:101A1000F6D105985B46A0EB080721463846179A91
:101A200000F094FA284400EB080507E04DE029E1B6
:101A30000DE01AF8010B5A4617999047B8F10108C2
:101A4000F7D25B4621463846179A13E142E00A2254
:101A50000092C4F302524FF0000A022A08D059F84B
:101A600004CB032A4FEAEC710AD00DE029E02AE00A
:101A700009F1070121F00702F2E802C1914609E0ED
:101A80000FFA8CFC4FEAEC71042A03D14FFA8CFC5C
:101A90004FEAEC71002907DA0A460021DCF1000C5C
:101AA00061EB02012D2202E0220504D52B228DF8E4
:101AB0000420012203E0E20701D02022F7E790464C
:101AC00059E00A2102E010220DE010214FF0000A37
:101AD00000910BE010224FF0000A44F004040827A4
:101AE000009203E008224FF0000A0092C4F3025271
:101AF000022A05D059F804CB0021032A08D009E0B6
:101B000009F1070121F00702F2E802C1914605E060
:101B10001FFA8CFC042A01D10CF0FF0C4FF00008D6
:101B2000220728D5702806D0009B83F0100353EAC3
:101B30000A0305D00EE040228DF80420012208E0BF
:101B40005CEA010206D030228DF804208DF80500F1
:101B500002229046009B83F0080353EA0A030AD14D
:101B60005CEA010201D1620705D530228DF804201C
:101B70004FF001087F1E582804D034A003900EA80F
:101B800002900DE036A0F9E753466046009AFEF752
:101B900015FD84460398825C0298401E02900270F4
:101BA0005CEA0100F0D1029806A9081A00F1200AA7
:101BB000600702D524F4803400E00127574502DD98
:101BC000A7EB0A0000E0002000EB0A010090059856
:101BD0004144401A0590E00306D45B462146179A1B
:101BE000059800F0B3F90544002706E001A85A461D
:101BF000C05D179990476D1C7F1C4745F6DBE003DD
:101C00000CD55B462146179A059800F09FF90544CC
:101C100004E030205A46179990476D1C0099481EE1
:101C200000900029F5DC08E0029802995A460078F5
:101C3000491C0291179990476D1CBAF10001AAF155
:101C4000010AF1DC65E1000009280100303132337E
:101C500034353637383961626364656600000000E8
:101C600030313233343536373839414243444546D2
:101C70000000000000F058F90544761C3078002878
:101C80007FF4ECAD19B02846BDE8F08F620700D4B0
:101C9000062709F1070222F0070CFCE80223E146BF
:101CA00003F000485FEA080C02D00FF2702C0DE040
:101CB0005FEA045C02D50FF2682C07E05FEAC47C9F
:101CC00002D00FF2602C01E0AFF2700C4FF0FF3841
:101CD00023F00043CDF850C065280CD006DC452821
:101CE00009D046281DD047283DD13DE0662818D0B0
:101CF00067287ED138E00021112F01DB112000E0A0
:101D0000781CCDE9000106A90EA8FFF7EDFCDDE97E
:101D10000F010E9A03910021009207F1010A04912C
:101D20004DE04FF000400097CDE9011006A90EA844
:101D3000FFF7DAFCDDE90F0203920E9B11990022F6
:101D4000DDF80CA00093049211B9791C00EB010A94
:101D5000B7EB0A0004D4C0F1FF3007F1010A049088
:101D6000AAEB0700019044E0012F00DA01270021CF
:101D7000112F01DD112000E03846CDE9000106A950
:101D80000EA8FFF7B1FCDDE90F010E9A03910021C7
:101D900004910092BA4621070CD40399514500DA08
:101DA0008A46BAF1010F05DD009AAAF10101515CE2
:101DB000302908D0B84202DA10F1040F06DA012106
:101DC000CDE9011015E0AAF10101E9E7002805DCE1
:101DD000049901440491AAEB000102E0411C514521
:101DE00000DD8A460499401A401C01904FF00040E3
:101DF0000290200704D40198504501DBCDF80480FF
:101E000000208DF84F0002980DF14F07B0F1004F00
:101E100025D02B200E9002984FF0020800280CDAF3
:101E2000404202902D200E9007E00A210298FEF712
:101E3000AFFB3031029007F8011DB8F10001A8F1A5
:101E40000108F2DC02980028EFD1791E0E98087084
:101E5000307800F0200040F0450007F8020D12A88D
:101E6000C01B00F107081498007800B1012000EBB6
:101E70000A01019801EBE07105984144401A401EA7
:101E80000590E00306D45B462146179A059800F0BA
:101E90005DF805441498007818B15A461799904790
:101EA0006D1CE00324D55B462146179A059800F087
:101EB0004DF805441CE00498002807DBDDE9030128
:101EC000884203DD0098405C179901E017993020A3
:101ED0005A469047049805F10105401C049001986A
:101EE000401E019004D12E205A46179990476D1C30
:101EF000BAF10001AAF1010ADDDC05E017F8010BD7
:101F00005A46179990476D1CB8F10001A8F10108D5
:101F1000F4DC5B462146179A0598ABE62D000000DD
:101F20002B000000200000002DE9F04104460025B0
:101F30001E461746880404D405E039462020B047E1
:101F40006D1C641EF9D52846BDE8F0812DE9F041ED
:101F5000044600251E469046C80301D5302700E000
:101F60002027880404D505E041463846B0476D1C5B
:101F7000641EF9D52846BDE8F0810A68531C0B6041
:101F80001070704770B5044601F0BCF8051900BF29
:101F900001F0B8F8401B0028FADD70BD014651B1D0
:101FA00017200122824043099B0003F1E023C3F87C
:101FB000002100BF00BF704710B51720FEF736FCA8
:101FC000044644B1172001218140044A430942F8E4
:101FD000231000BF00BF204610BD000080E100E0DC
:101FE0002DE9F84F04464FF00009CA46257860797C
:101FF000824931F810806078401E8149C6B208637A
:10200000042D01D0072D01D1012000E000208346DE
:1020100020787B490873E07938B90846806940F434
:10202000800088614FEAE80805E07548806920F47F
:10203000800073498861207A714948730846806935
:10204000217A4FF4403202EA014108436C49886129
:10205000084600218269042000F0D5FB424642F682
:1020600004012E2000F0BCFB3046FFF76EFA6548F5
:10207000405D00EB800064494318052207212B20B6
:1020800000F0D9FB614800EB0B0301220B21282053
:1020900000F0D1FB5B48405D5D4951F820200C21E8
:1020A000282000F0B0FBE0795A4901EB8000A179CB
:1020B00030F811200221272000F092FB564830F81A
:1020C00016200421272000F08BFBE07928B9642238
:1020D0000621272000F084FB1EE0A07804280DD103
:1020E0001020009010220621272000F079FB6B467B
:1020F00001222621272000F09EFB0DE028200090E1
:1021000020220621272000F06BFB6B4601222621AE
:10211000272000F090FB00BF404800EB0610E1785C
:1021200050F821200821272000F06DFBB4F80900A9
:1021300018B941F24100A4F80900B4F8092020219F
:10214000272000F04DFB36480C210268232000F0C8
:102150005AFB3348001D30F816200421232000F0DC
:102160003FFBA07958B1E0792E49431801220021A4
:10217000212000F060FB4FF003094FF0010A05F049
:102180000F00F02101EA0511084361784FF4402265
:1021900002EA81410843910001EA095108434FF4E2
:1021A000003101EA4A41084321794FF0F86202EA1E
:1021B000815108436179520102EAC16140EA010795
:1021C0003A4600211F2000F01EFBA07861780843EA
:1021D00000040B49086108460069E1794FF40042A8
:1021E00042EA413108430649086108460021026974
:1021F000082000F008FB0020BDE8F88F78330008C5
:10220000BC030020FC3200081C3300083A330008ED
:1022100004330008483300085433000858330008DA
:102220003C3300084433000870B5054604213620CD
:1022300000F070F9044615B144F4006401E024F4A0
:10224000006422460421362000F0DDFA70BD000053
:1022500038B54020009000210E2000F05BF90546C3
:10226000FFF7AAFE0446002211460E2000F0CBFA2A
:102270006B46012200210D2000F0DDFA094A002101
:102280000F2000F0C0FA00F08FFA2A4600210E203D
:1022900000F0B9FA2046FFF781FE0020024981F8DC
:1022A0002C0038BDF8FF2724BC0300202DE9F74F90
:1022B00084B006468B4600245846FEF73AF90022C1
:1022C0003A4BCDE90001FDF7D4FFCDE90201FEF75D
:1022D000ECF88246BAF1FF0F01DD4FF0FF0A0698D5
:1022E000012825D1042E02D0072E10D100E000BF16
:1022F0002F48855D00E0641C05EB05102D4901EBBE
:102300008000005D5045F6DBA4F11C090FE02A486F
:10231000855D00E0641C05EB850000EB4510274956
:102320000844005D5045F5DBA4F1170900BF27E024
:10233000042E02D0072E11D100E000BF1C48855D9D
:1023400000E0641C05EB8500C0EB85101C490844C7
:10235000005D5045F5DBA4F11E0910E01648855DCF
:1023600000E0641C05EB850000EBC500154901EB9E
:102370004000005D5045F4DBA4F1110900BF00BF2F
:102380004846FEF757F80390FEF7D3F8074688460D
:102390000D4A0E4B38464146FDF76BFF074688460F
:1023A0003846414607B0BDE8F08F000000001040FD
:1023B000B23300084E340008AA330008BA330008CC
:1023C0003E350008D63400087B14AE47E17A843FDE
:1023D0002DE9FC410446042001900025002700203F
:1023E0003F494875086300213D4880F825100020CA
:1023F0003B4981F82C0088834863886300F0A6F885
:1024000037490860084600683649884202D0881774
:10241000BDE8FC810020FFF7B4F84FF01F32002127
:102420001E2000F0F0F901AB01220021242000F071
:1024300002FA1E20FFF731F985B2280A284988736D
:102440000420FFF72AF90746F8B270B10220009085
:102450006B46012212212D2000F0EDF92048808BDF
:1024600040F480501E49888300BF0620FFF715F90D
:102470001B4948600720FFF710F91949886005F0EB
:102480001F0008750846007D08B91020087514491A
:10249000087D00F029FA04F0010040B1FFF7E3F8ED
:1024A0000F48808B40F400600D4988830DE00521C2
:1024B000362000F019F806464FF6FF500640324627
:1024C0000521362000F08CF900BF0120FFF759F8F4
:1024D0000021042000F01EF801498861002097E7E0
:1024E000BC0300203001CADEF8B504460D464FF6A5
:1024F000FF76A9B2A0B26B46022200F02DF8074683
:1025000037B99DF800009DF8011000EB012086B25C
:102510003046F8BD2DE9F84305460E464FF0FF372B
:10252000B1B2A8B26B46042200F016F88046B8F1AA
:10253000000F08D1032404E01DF8040000EB072776
:10254000641E002CF8DA3846BDE8F88310B5002187
:102550000846FFF7DFFF10BD2DE9F84306460C469D
:102560001746984600252CB9F2B228466D1C0DF886
:1025700000201BE0F0B240F0400228466D1C0DF830
:1025800000207F2C05DCE2B228466D1C0DF80020EF
:102590000CE0E0B240F0800228466D1C0DF80020EF
:1025A000C4F3C71228466D1C0DF80020A8B243469C
:1025B0003A46694600F0ACFDBDE8F88370B50446C4
:1025C0000D46164623462A4631461120FFF7C4FF22
:1025D00070BD10B504462346052200211520FFF7E3
:1025E000BBFF10BD10B5044623460522002117206D
:1025F000FFF7B2FF10BD38B504460020009000F090
:10260000D3F84FF480750CB145F400752A460021CB
:102610000D2000F0E5F8B4B16B46012203210F2034
:10262000FFF79AFF9DF8000000F0080058B1FFF78F
:102630000FFE4FF480752A4600210D2000F0D0F8DF
:102640004FF0FF3038BD0020FCE710B504462246AD
:1026500001210A2000F0D7F810BD70B50546002111
:102660001A20FFF757FF04466FF31304C5F3130056
:102670000443224600211A2000F0C5F870BD10B5B1
:102680000446224641F604012E2000F0A9F810BDB0
:1026900038B504466B46012203210420FFF75CFF96
:1026A000002C16DD224600210C2000F099F89DF840
:1026B000000040F0100000900F48806940F080500A
:1026C0000D4988616B4601220321042000F0B3F814
:1026D00010E09DF8000020F010000090064880698E
:1026E00020F08050044988616B46012203210420B8
:1026F00000F0A1F838BD0000BC03002010B504466E
:1027000022460021182000F06BF810BDF8B50446F1
:10271000002500200090002604F0020058B180201F
:1027200000906B46012200210D2000F084F801206A
:102730001C4981F82C0004F0010028B39DF800002A
:1027400040F0060000906B46012200210D2000F0B1
:1027500072F803210F20FFF7C7FE064606F48160DA
:1027600008B900251BE0402000906B4601220021A3
:102770000D2000F060F80020FFF756FD0020094909
:1027800081F82C00451E0AE09DF8000040F0020090
:1027900000906B46012200210D2000F04CF82846E5
:1027A000F8BD0000BC0300201CB501AB01220321D1
:1027B0000F20FFF7D1FE9DF8040000F080009DF887
:1027C000041001F04001B0EB410F08D0012000904F
:1027D0006B46012203210D2000F02DF800BF1CBD27
:1027E000F8B505460E461446E0B28DF800002012FA
:1027F0008DF80100B1B2A8B26B46022200F01BF8BE
:1028000007463846F8BD2DE9F84306460F461446FC
:10281000002504E0E0B20DF80500240A6D1C042D2B
:10282000F8DBB9B2B0B26B46042200F004F880467F
:102830004046BDE8F8832DE9F84306460C461746A6
:10284000984600253CB9F0B240F0800228466D1C45
:102850000DF800201BE0F0B240F0C00228466D1CCD
:102860000DF800207F2C05DCE2B228466D1C0DF827
:1028700000200CE0E0B240F0800228466D1C0DF80C
:102880000020C4F3C71228466D1C0DF80020A8B222
:1028900043463A46694600F0F3FCBDE8F88370B55C
:1028A00004460E4615462819B0F5806F02DD4FF03C
:1028B000FF3070BDA21E334629460920FFF7BBFF3B
:1028C0000020F6E770B504460D460648006920432F
:1028D00040EA8556324600210820FFF794FF002089
:1028E00070BD0000BC03002038B504466B460122D1
:1028F0000E212B20FFF730FE9DF8000020F01F0076
:10290000009004F01F009DF80010084300906B46F3
:1029100001220E212B20FFF78EFF38BD10B5024695
:1029200000230B60002006E0135CC400A3400C6889
:1029300023440B60401C0428F6DB10BD70B5014633
:10294000002005E00A54140A44EA03621B0A401CF2
:102950000428F7DB70BD000070B504460D46E1B2F7
:102960000548FEF759FD00BF0348008800F08000CD
:102970000028F9D0204670BD003801407CB5002108
:102980000C460D466846FFF724FE042607E02802A1
:1029900040EA146524021DF806000443761E002E4A
:1029A000F5DA204629467CBD7CB500210C460D4653
:1029B0006846FFF717FE042607E0280240EA146580
:1029C00024021DF806000443761E002EF5DA204688
:1029D00029467CBD94B000F085FB00F0D9FB00F0E7
:1029E00009FC0120FFF7F4FC00F0FFFBFE48FFF7B5
:1029F000F7FA48F28300FFF742FE0020FFF77EFE61
:102A00009620FFF72AFE41F25C20FFF741FE6D2081
:102A1000F6490870D6204870F5480078F549887165
:102A2000F3480078F4498871F1480078F3498871D7
:102A3000EF480078F2498871ED480078F1498871D3
:102A4000EB480078F0498871F0480078E94948710E
:102A5000EE480078E8494871EC480078E749487149
:102A6000EB48007800287DD1F4E0EA480078E1499D
:102A7000887000220C20FFF712FF00210C20FFF7C6
:102A800021FF0220FFF742FE00BF00210F20FFF7C9
:102A900041FDE1490860E14908400028F5D0DD48E2
:102AA0000068401CDB490860DB48008800F4804077
:102AB000002878D04FF4814200210F20FFF7A3FEB9
:102AC00000211020FFF726FD00F07F0421460022A0
:102AD000D348FFF773FD0020D14988700846407A3B
:102AE00010287DD1FFF760FFCE4A03C2FFF746FFF3
:102AF000CD4A03C2CD48C549097800EB4100C84919
:102B0000B1F80B100180C848D0E90030C84A9A18C3
:102B100040F10000010641EA12252846FFF795FD25
:102B200025F001000021090241EA106100020023A2
:102B3000C0185941BF4A03C2BA480CC8AF480A304E
:102B4000FFF7FCFEB8480CC8AC480E30FFF7F6FEA5
:102B5000B8480CC8A9481230FFF7F0FEAD4800781D
:102B6000A64900E077E0887000221820FFF797FE62
:102B700000211820FFF7A6FE0120FFF7C7FDA3489C
:102B80000078FDF771FCAC4A03C2AB480CC8ABA09F
:102B9000FEF7A8FC96480078FDF766FCA64A03C23B
:102BA000A5480CC800E047E0A8A0FEF79BFC9F49A1
:102BB000964A127831F91200FDF745FC0646324676
:102BC0000B46A7A0FEF78EFC9849904A127831F97F
:102BD0001200FDF738FCCDE900018548037800E0DC
:102BE00026E08A480278A3A1AE48FEF78BFC50216C
:102BF000AC48FEF76BFC0221AB48FDF75EFF00BF5F
:102C000000210F20FFF786FC00F080000028F7D09D
:102C1000802200210F20FFF7F6FD7E480068401C4F
:102C20007C4908600020A1490860A149087002E0C1
:102C300005209F49087007E09E4A00210F20FFF7FA
:102C4000E2FD05209A4908709949097801F164006C
:102C5000FFF798F909E720E202219348FDF72DFFDD
:102C60000020FFF715FD0020FFF7C5FC00BF002185
:102C70000F20FFF74FFC68490860684908400028AA
:102C8000F5D06548008800F4804000287ED04FF4DD
:102C9000804200210F20FFF7B6FD00211020FFF732
:102CA00039FCC0F30900844908600846008881B2F5
:102CB00000225B48FFF782FC0020594988700846D3
:102CC000407952490870084600784D4948714F488C
:102CD00000784C4948714D4800784B49487150483C
:102CE000407A2128B7D1FFF749FE744A03C27348DE
:102CF000D0E90020724BD21840F10000010641EAF1
:102D0000122012901298FFF7A0FC4FF4FA70FFF710
:102D1000A4FC41F2CC00FFF7BBFC44483B490978D6
:102D200000EB410137480988A0F80B1039480078BA
:102D30003449887000220F20FFF7B1FD00210F20D9
:102D4000FFF7C0FD0320FFF7E1FC00BF00210F20CB
:102D5000FFF7E0FB30490860304908400028F5D013
:102D60002C480068401C2B4908602B48008800F460
:102D70008040002836D04FF4814200210F20FFF719
:102D800042FD00211020FFF7C5FB00E080E100F0CC
:102D90007F00494908600846008881B20022204827
:102DA000FFF70CFC00201E4988700846407A232853
:102DB00019D1FFF7F9FD434A03C2FFF7DFFD424A8D
:102DC00003C211A916480A30FFF7A8FD10A914483C
:102DD0000E30FFF7A3FD0FA911481230FFF79EFD3B
:102DE000364873E04EE152E100000020D802002096
:102DF000E80000203E0000204A000020590000208A
:102E00000B0000201700002026000020E700002013
:102E1000E6000020A8000020AC00002000D02724FD
:102E200030010020B0000020B80000202001002068
:102E300000001C0CC0000020D00000205441475F5F
:102E400049443A2025322E3066090900414E434854
:102E50004F525F49443A2025322E3066090900005E
:102E600044697374616E63653A2025352E3066209F
:102E7000636D0A005441475F49443A2025640909BB
:102E8000414E43484F525F49443A20256409094462
:102E9000697374616E63653A2025352E3066206350
:102EA0006D0A0000F1020020000C0140F00000203B
:102EB000D800002000902724C800002078000020BF
:102EC0000000280A800000208800002000680E9082
:102ED000724800680D90724800680C90DDE910128D
:102EE000881AFDF7C1FA04460D46DDE90C12881A6E
:102EF000FDF7BAFA06460F46DDE90F12881AFDF70C
:102F0000B3FA80468946DDE90D12881AFDF7ACFA5E
:102F100082468B4632463B4620462946FDF702F95B
:102F200042464B46CDE90001FDF7FCF852465B46B0
:102F3000CDE90201FDF7F6F852465B46CDE9060100
:102F400040464946FDF795F932463B46CDE9020138
:102F500020462946FDF78DF9CDE90001DDE9022380
:102F6000FDF781F9CDE90401DDE90623FDF7F3F969
:102F7000CDE90801FDF7B8FACDE90A01DDE90A015A
:102F8000FDF77FFA474A484BCDE90801FDF771F993
:102F9000464A03C24FF09852454B444903C9FDF7D6
:102FA00068F9444A03C2434903C9FDF7D5FA4249C7
:102FB00007904A7808780799FFF778F9CDE9080172
:102FC0003C480CC80898FDF751F93C4A03C200225E
:102FD0003B4B3A4903C9FDF74CF9CDE90801FDF730
:102FE00064FA384908603848017836480068FDF7C7
:102FF0007BFD00B23549344A127821F812000020D6
:103000003349086030480078FDF72EFA314A03C290
:1030100030480CC8AFF2DC10FEF764FA2E48007896
:10302000FDF722FA2B4A03C22A480CC8AFF2E4107B
:10303000FEF758FA2549244A127831F91200FDF7B3
:1030400002FA02460B46CDE90801AFF2EC10FEF79A
:1030500049FA1E491C4A127831F91200FDF7F3F9BA
:10306000CDE90801CDE900011B4803781648027834
:10307000AFF200211948FEF745FA50211748FEF734
:1030800025FA04E0164A00210F20FFF7BCFB04E0FC
:10309000134A00210F20FFF7B6FBDDE5800000207A
:1030A00088000020FA48CE3B1835B13D9000002042
:1030B00019DDB1419800002000000020A000002090
:1030C00000005940CC000020E70000202001002033
:1030D000F0000020D0000020E8000020F1020020D5
:1030E0000090272410B5FDF7D3FDFDF7C7FBFEF7D1
:1030F00057F800F073F800F083F84FF4E130FEF772
:103100008FF910BD0148006870470000EC000020F6
:103110002DE9F04706460F4690461D460024FEF76F
:103120004BFF814610201849086000BF0DE0385D54
:103130001649888100BF1548008900F00100002869
:10314000F9D0124880892870641CB442EFDB002457
:103150000DE000200D49888100BF0C48008900F077
:1031600001000028F9D0094880892855641C44458D
:10317000EFD310200449091F08604846FEF70EFFF0
:103180000020BDE8F0870000140801400030014035
:1031900008B50420ADF8000010208DF803000320CE
:1031A0008DF8020069460C48FDF7A6FB04210A4889
:1031B000FDF77FFC0420ADF8000000208DF803002F
:1031C00003208DF8020069460348FDF795FB0220B5
:1031D000FEF7D8FE08BD00000008014010B5FDF75D
:1031E000BBFE0A20FEF7CEFE10BD00B50820FDF79D
:1031F00099FE00BD00B52020FDF794FE00BD000043
:1032000000B585B04FF4E13001900020ADF8080022
:10321000ADF80A00ADF80C00ADF810000C20ADF8C8
:103220000E0001210520FDF713FD01218803FDF7A4
:103230000FFD18208DF803004FF40070ADF800006A
:1032400003208DF8020069460B48FDF755FB04206A
:103250008DF803000002ADF8000069460648FDF74E
:103260004BFB01A90548FEF76BF801210348FEF767
:1032700029F805B000BD00000008014000380140F9
:103280002DE9F04705460E46174698460024FEF7FE
:1032900093FE814610201749086000BF0CE0305DA6
:1032A0001549888100BF1448008900F001000028FA
:1032B000F9D011488089641CAC42F0DB00240DE099
:1032C00018F804000C49888100BF0B48008900F001
:1032D00001000028F9D008488089641CBC42EFD363
:1032E00010200449091F08604846FEF757FE0020D9
:1032F000BDE8F087140801400030014000000102E1
:1033000003040005405C0000A05C0400C06C0800E1
:10331000805C0400E03F1E00E07D1E000704000901
:103320001E080540082609104008560805400826D2
:103330001D040008BE1D040008BED8BC07A9022554
:1033400070889B88401008000A00160001000600E3
:103350000100020087008D002D001A3152001A333F
:103360009A001A351D011A376B003B31BE003B3302
:103370005E013B3596023B37000099599959EB5154
:103380008F421E45142E0080EB51F5283333E13A6D
:10339000703DE13AC235852BC2353333C235C23573
:1033A000AE47E13A5138A330513800000102000322
:1033B00000000000000000000001010304050709EF
:1033C0000B0C0D0F121417191C1E2124282B2F3241
:1033D000363A3F42474C5259626D7F9BDEFFFF01F8
:1033E0000204050608090A0C0D0F121416181B1DFD
:1033F000202326292C2F33373A3E42474E55606F03
:1034000087C2F0FF01020304050708090A0C0E1029
:10341000121416181A1C1F2124272A2D3134373B69
:103420003F454C556278ADD5FF0101020304050606
:10343000060708090B0C0E0F1012141517191B1D87
:103440001F222426292C30353B44537894FF07074C
:103450000809090A0B0B0C0D0E0F1011121314158D
:103460001617181A1B1C1E1F20222426282A2C2E51
:1034700030323437393B3D3F4244474A4E5155592B
:103480005E63686E747B828B96A4B6CFEEFFFFFFFF
:10349000FFFF0405050506060707070809090A0ACC
:1034A0000B0B0C0D0D0E0F10111112131415161716
:1034B000191A1B1D1E1F202223242627282A2C2EE2
:1034C000303234373A3D4044484B50555C65707F4C
:1034D00093A8B6C2CDFF010202030405070A0D102E
:1034E0001316181B1E2023262B30384E65789DFF9F
:1034F00001020203040406090C0E111315181A1C0C
:103500001F21252A314459698AFF0101020303045E
:1035100005080A0D0F11131517191B1E21252C3C28
:103520004F5D7AFF010101020203040607090A0C3C
:103530000D0F10111315171A1E2A374155FF0708D2
:103540000809090A0B0C0D0D0E0F101011121313A0
:1035500014151618191B1C1D1E202122232527298E
:103560002B2D303235383C40444A5159626D7A88AF
:10357000929AA2B2DCF9FFFFFF04050505060607D3
:1035800007080809090A0A0A0B0B0C0D0D0E0F108B
:1035900010111213131415161718191A1C1D1F21B8
:1035A0002325272A2E32363C434B535A5F646E87BD
:1035B00099ACC0FFD43500080000002020010000B5
:1035C0002C150008F436000820010020D806000061
:1035D0003C1500080202080209090100002104004C
:1035E0008800CADE57415645210000418800CADEE6
:1035F00056455741100200000000418800CADE57BE
:1036000041564523000000000000000000000000BB
:103610000000008800CADE5741564521000041885D
:1036200000CADE56455741100200000000418800E4
:10363000CADE57415645230000000000000000008C
:10364000000000000000000000000000000000007A
:10365000000000000000000000000000000000006A
:10366000000000000000000000000000000000005A
:10367000000000000000000000000000000000004A
:10368000000000000000000000000000000000003A
:10369000000000000000000000000000000000002A
:1036A000000000000000000000000000000000001A
:1036B0000000000000000000000000000100000009
:1036C00000000000000000000000000001020304F0
:1036D00001020304060708090204060800A24A04BE
:1036E00000000000000000000102030406070809B2
:0436F00000000000D6
:04000005080000ED02
:00000001FF
