:020000040800F2
:100000006847002001010008090100080B010008F1
:100010000D0100080F010008110100080000000098
:1000200000000000000000000000000013010008B4
:100030001501000800000000170100087D64000899
:100040001B0100081B0100081B0100081B01000820
:100050001B0100081B0100081B0100081B01000810
:100060001B0100081B0100081B0100081B01000800
:100070001B0100081B0100081B0100081B010008F0
:100080001B0100081B0100081B0100081B010008E0
:100090001B0100081B0100081B0100081B010008D0
:1000A0001B0100081B0100081B0100081B010008C0
:1000B000016500088D650008496600081B010008FD
:1000C0001B0100081B0100081B0100081B010008A0
:1000D0001B010008BD6700081B0100080568000837
:1000E0001B0100081B0100081B010008DFF80CD0F1
:1000F00000F0FAFB00480047717A000868470020CA
:100100000648804706480047FEE7FEE7FEE7FEE7B1
:10011000FEE7FEE7FEE7FEE7FEE7FEE7A164000874
:10012000ED00000840EA01039B0703D009E008C97D
:10013000121F08C0042AFAD203E011F8013B00F8AC
:10014000013B521EF9D27047D2B201E000F8012BF8
:10015000491EFBD270470022F6E710B513460A4647
:1001600004461946FFF7F0FF204610BD421E12F864
:10017000013F002BFBD111F8013B02F8013B002BA2
:10018000F9D17047421C10F8011B0029FBD1801ADD
:1001900070472DE9FE4F804681EA0300C00F0C46F0
:1001A000009021F0004123F00045B8EB0200A94186
:1001B00005D24046214690461C460B46024623F097
:1001C0000040104347D0270DC7F30A00C3F30A517C
:1001D0000290401A019040286BDAC3F3130040F4F8
:1001E000801B0098924620B10023D2EB030A63EBF8
:1001F0000B0B01985946C0F14002504600F046FAF8
:1002000006460D4650465946019A00F05EFA10EB3C
:1002100008006141002487EA115284EAE7731A4317
:1002200040D0009A62B3019A012A4FEA075215DCC6
:10023000001B61EB02014FF0004202EA0752CDE9D8
:100240000042001C41F5801132462B4600F095FA21
:1002500003B0BDE8F08F40462146F9E7001B61EB93
:100260000201001C41F5801300185B412018A2F523
:10027000001747EB030140EAD570B6196D4111E054
:100280006D084FEA360645EAC0754FEA0752001B73
:1002900061EB0201001C41F5801149084FEA300072
:1002A0000019514132462B4603B0BDE8F04F00F033
:1002B00055BA0098012240000023D0EB020263EB04
:1002C000E073009821464FEAE074B8EB000061EB60
:1002D0000401E9E783F000435BE781F0004158E760
:1002E0002DE9FE4F81EA030404F0004421F00041AF
:1002F00000944FF0000B23F0004350EA01045ED05D
:1003000052EA03045BD0C3F30A54C1F30A552C44E8
:10031000A4F2F3340194A0FB0254C1F3130141F49D
:100320008011C3F3130343F4801301FB024400FB69
:10033000034E840A970A44EA815447EA8357A4FB90
:10034000076802958D0A05FB07854FEA932C04FB8D
:100350000C542705029D4FEA065847EA1637B5EBBD
:1003600008056EEB070C870E920E47EA811742EAEA
:100370008312A7FB0201B6EB0B0164EB00042B0D0B
:1003800043EA0C335E1844EB1C50DA465146E7FB57
:100390000201C5F313044FEA0B3343EA14534FEA47
:1003A0000432019C43EA0603A4F10C040294009C6D
:1003B000CDE900B400F0E1F903B0BDE8F08F002012
:1003C0000146F9E72DE9F04D81EA030404F0004B02
:1003D00021F0004514464FF0000A23F0004150EA96
:1003E000050220D054EA01021DD0C5F30A57024687
:1003F000C5F31303C1F31300C1F30A5640F480158B
:1004000043F48013A7EB0608101BD64608F2FD380C
:1004100073EB050002D308F1010801E092185B417B
:10042000B8F1000F03DA00200146BDE8F08D00208E
:100430004FF48011064684460EE0171B73EB050748
:1004400005D3121B63EB050306434CEA010C490874
:100450004FEA300092185B4150EA0107EDD152EAB1
:10046000030012D082EA040083EA0501084305D0A4
:10047000101BAB4106D20122002306E000224FF000
:10048000004302E06FF0010253101AEB06004CEB40
:10049000085110EB0A0041EB0B01BDE8F04D00F0F4
:1004A0005DB9C10F80EAE0700844CA0796230021B5
:1004B00000F026B90EB5C10F80EAE0700844CA0703
:1004C000002140F233438DE80E000A460B4600F04F
:1004D00054F903B000BD0EB540F233410291002142
:1004E000CDE900110A460B4600F047F903B000BD04
:1004F0003EB5CA17CB0F002450405140C01861418F
:10050000DA0740F233430094CDE901232246234623
:1005100000F033F903B030BD70B5C1F30A5201F0F9
:1005200000450024C1F3130140F2FF3341F4801170
:100530009A4201DA002070BD40F233439A42A2F29F
:10054000334203DC524200F0B0F800E090402C430C
:10055000F1D0404270BD70B5C1F30A5201F00045C0
:100560000024C1F3130140F2FF3341F480119A4299
:1005700002DA0020014670BD40F233439A42A2F2F3
:10058000334203DC524200F090F801E000F07EF8C4
:100590002C43F0D00023D0EB030063EB010170BDCE
:1005A00000F0004230F000400AD0C10D01F560714A
:1005B000C0F3160042EA0151C208400711437047D8
:1005C000002001467047000030B5041E71F10004A0
:1005D00004DB4FF00044404264EB0101141E73F150
:1005E000000405DB1C464FF00043524263EB04035A
:1005F0008B4208BF824230BD30B5041E71F1000449
:1006000004DB4FF00044404264EB0101141E73F11F
:10061000000405DB1C464FF00043524263EB040329
:10062000994208BF904230BD01F0004330B421F040
:10063000004150EA010206D00A0DA2F56072C1F332
:100640001301002A02DC30BC00207047440F44EA4A
:10065000C104C100E01830BC00EBC25000F047B844
:1006600030B50B46014600202022012409E021FA82
:1006700002F59D4205D303FA02F5491B04FA02F57F
:100680002844151EA2F10102F1DC30BD202A04DB52
:10069000203A00FA02F1002070479140C2F1200395
:1006A00020FA03F3194390407047202A04DB203AD4
:1006B00021FA02F00021704721FA02F3D040C2F182
:1006C00020029140084319467047202A06DBCB17C9
:1006D000203A41FA02F043EAE07306E041FA02F3FD
:1006E000D040C2F1200291400843194670470029CA
:1006F000A8BF7047401C490008BF20F001007047A8
:1007000010B4B0FA80FC00FA0CF050EA010404BF07
:1007100010BC704749B1CCF1200421FA04F411FA5D
:100720000CF118BF012121430843A3EB0C01CB1DA1
:100730004FEA00614FEA102042BF002010BC704712
:1007400000EBC35010440029A4BF10BC7047401CEC
:10075000490008BF20F0010010BC704710B5141EFE
:1007600073F1000408DA401C41F1000192185B416A
:100770001A4301D120F0010010BD2DE9F04D924641
:100780009B4611B1B1FA81F202E0B0FA80F2203258
:100790009046FFF77BFF04460F4640EA0A0041EA15
:1007A0000B0153465A46084313D0114653EA010041
:1007B00019D0C8F140025046FFF777FF05460E46B4
:1007C000504659464246FFF761FF084305D00120D5
:1007D00004E020463946BDE8F08D0020054346EA96
:1007E000E0762C4337430A986305E40AA0EB08003F
:1007F0000022FD0A44EA47540A3002D5002001468F
:10080000E9E7010510196941DDE908450019694169
:10081000BDE8F04DA2E770B521F0004303430CD0D2
:10082000C1F30A550024D5EB040564EB0403D61785
:10083000AD1AB34102DB0020014670BD201841EB28
:10084000025170BD2DE9F04D00231A461B1A8A4152
:1008500003DB00200146BDE8F08DC1F30A52C1F36D
:10086000130141F480154FF0000BD10702D100189D
:100870006D41521E0027044640F2FF11384601EB3D
:10088000620A3E468046024600204FF48011FFF780
:100890000CFFC2197141BB1846EB0100B4EB030C0D
:1008A00075EB000C04D3E41A65EB000517460E4601
:1008B000241908F101006D4180463428E3DDF9195F
:1008C00046EB0600091BA84103D24FF0FF32134646
:1008D00001E0002213461BEB070046EB0A51BDE87E
:1008E000F04DFFF73BBF0000064C074D06E0E06807
:1008F00040F0010394E8070098471034AC42F6D367
:10090000FFF7F8FBF89400081895000870B58C18EC
:1009100010F8015B15F0070301D110F8013B2A1113
:1009200006D110F8012B03E010F8016B01F8016B00
:100930005B1EF9D12B0705D40023521E0DD401F8FC
:10094000013BFAE710F8013BCB1A921C03E013F8C5
:10095000015B01F8015B521EF9D5A142D8D30020FA
:1009600070BD000070B502460C46FF25FF2309E06C
:1009700012F8010B80EA05010648405C80EA030595
:100980000548435C2000A4F10106F4B2F0D143EA2B
:10099000052070BD98870008988800081FB5A6B08C
:1009A000DDE93023DDE92801FFF794FCCDE91C01E6
:1009B000DDE93023DDE92801FFF78CFCCDE91A01E0
:1009C000DDE91C23FFF78CFCCDE92001DDE92E23B6
:1009D000DDE92601FFF77EFCCDE91C01DDE92E23D0
:1009E000DDE92601FFF776FCCDE91A01DDE91C23DC
:1009F000FFF776FCCDE91E01DDE92023FFF7C9FBF7
:100A0000CDE9220107F0E5FDCDE92401DDE92E2342
:100A1000DDE92601FFF7D8FD10D1DDE93023DDE95E
:100A20002801FFF7D1FD09D1DDE93223DDE92C01F1
:100A3000FFF7CAFD02D101202AB010BDDDE9322343
:100A4000DDE92C01FFF7A5FBCDE92201DDE9242337
:100A5000FFF7BAFD7DD2DDE93223DDE92C01FFF796
:100A600098FB02460B46CDE91A01DDE92401FFF7A8
:100A7000A9FCFE4AFE4BCDE91C01FFF78AFBCDE93C
:100A80002201DDE92223DDE92C01FFF729FCCDE974
:100A90002001DDE92223DDE93201FFF721FCCDE968
:100AA0001E01DDE92E23DDE92601FFF78DFD7CD156
:100AB000DDE93023DDE92801FFF786FD75D0DDE9AA
:100AC0002E10CDE92610CDE91C1000204FF08041FA
:100AD000DDE92423FFF704FCCDE91001DDE924233F
:100AE000FFF7FEFBCDE91401DDE92423104619468A
:100AF000FFF7F6FBCDE90C01DDE91E231046194690
:100B0000FFF7EEFBCDE90801DDE920231046194689
:100B1000FFF7E6FBCDE90601DDE90823FFF7DAFB85
:100B2000CDE90A01DDE90C23FFF733FBCDE9100124
:100B3000DDE92823DDE93001FFF7CCFBCDE90E012B
:100B4000DDE91023FFF7CCFBCDE91201DDE9142329
:100B500000E064E2FFF736FCCDE91601DDE9282369
:100B6000FFF717FBCDE91A01DDE92823DDE91A01BA
:100B7000FFF7B0FBCDE91001DDE92823DDE91A011B
:100B8000FFF7A8FBCDE90E01DDE91023FFF7A8FB75
:100B9000CDE91401DDE91C23DDE92601FFF79DFB0A
:100BA000CDE90C01DDE91C2300E03FE0DDE9260191
:100BB000FFF793FBCDE90A01DDE90C23FFF790FB7A
:100BC000CDE91001DDE9202310461946FFF788FB27
:100BD000CDE90E01DDE91023FFF77CFBCDE9120121
:100BE000DDE91423FFF776FBCDE9160107F0F1FCF0
:100BF000CDE91801DDE91823DDE91C01FFF76AFBE7
:100C0000349A03C2349ADDE91A01C2E90201DDE92E
:100C10001823DDE91C01FFF7BCFA349AC2E904018C
:100C2000DDE91A203499C1E90620F6E1DDE92E2339
:100C3000DDE92601FFF7C8FC7ED0DDE93023DDE9E0
:100C40002801FFF7C1FC77D1DDE93001CDE92801AA
:100C5000CDE91C0100204FF08041DDE92423FFF79E
:100C60003FFBCDE91001DDE92423FFF739FBCDE996
:100C70001401DDE9242310461946FFF731FBCDE9C5
:100C80000C01DDE91E2310461946FFF729FBCDE9CB
:100C90000801DDE9202310461946FFF721FBCDE9C5
:100CA0000601DDE90823FFF715FBCDE90A01DDE9BF
:100CB0000C23FFF76EFACDE91001DDE92E23DDE903
:100CC0002601FFF70AFBCDE90E01DDE91023FFF74E
:100CD00007FBCDE91201DDE91423FFF773FBCDE932
:100CE0001601DDE92623FFF754FACDE91A01DDE903
:100CF0002823DDE91C01FFF7EDFACDE91001DDE95C
:100D00002823DDE91C01FFF7E5FACDE90E01DDE955
:100D10001023FFF7E5FACDE91401DDE91A23DDE937
:100D20002601FFF7DAFACDE90C01DDE91A23DDE946
:100D30002601FFF7D2FA00E03CE0CDE90A01DDE947
:100D40000C23FFF7CDFACDE91001DDE92023104691
:100D50001946FFF7C5FACDE90E01DDE91023FFF7CB
:100D6000B9FACDE91201DDE91423FFF7B3FACDE9B1
:100D7000160107F02EFCCDE91801349ADDE91A10AE
:100D8000C2E90010DDE91823DDE91C01FFF7A2FA32
:100D9000349AC2E90201349ADDE91A10C2E904105A
:100DA000DDE91823DDE91C01FFF7F3F9349AC2E904
:100DB000060132E1DDE92E23DDE92601FFF704FC1F
:100DC000F7D0DDE93023DDE92801FFF7FDFBF0D0A6
:100DD000DDE92E23DDE92601FFF77FFACDE91001D9
:100DE000DDE92823DDE93001FFF774FACDE90E01D2
:100DF000DDE91023FFF7E6FACDE91C0100201D49CB
:100E0000DDE91C23FFF7DEFACDE91A0100204FF0DF
:100E10008041DDE92423FFF763FACDE90A01DDE92A
:100E20002423FFF75DFACDE90E01DDE92423104606
:100E30001946FFF755FACDE90601DDE91E231046F4
:100E40001946FFF74DFACDE90201DDE920231046EE
:100E50001946FFF745FACDE90001DDE90223FFF766
:100E600039FACDE90401DDE9062305E07B14AE473C
:100E7000E17A843F0000F0BFFFF78BF9CDE90A016A
:100E8000DDE92E23DDE92601FFF727FACDE9080188
:100E9000DDE90A23FFF724FACDE90C01DDE90E2391
:100EA000FFF790FACDE91001DDE92623FFF771F98C
:100EB000CDE91801DDE91823DDE92601FFF70DFA78
:100EC000CDE90E01DDE91C23FFF70AFACDE9100197
:100ED000DDE92823FFF75DF9CDE91601DDE92823D7
:100EE000DDE91601FFF7F6F9CDE90C01DDE928236C
:100EF000DDE91601FFF7EEF9CDE90A01DDE90C2382
:100F0000FFF7EEF9CDE91001DDE91823DDE926014F
:100F1000FFF7E3F9CDE90801DDE91823DDE9260152
:100F2000FFF7DBF9CDE90601DDE90823FFF7D8F982
:100F3000CDE90C01DDE9202310461946FFF7D0F971
:100F4000CDE90A01DDE90C23FFF7C4F9CDE90E0173
:100F5000DDE91023FFF7BEF9CDE91401DDE91A231D
:100F600010461946FFF7BCF90022FE4BCDE90C01F3
:100F7000FFF70FF902460B46CDE90E01DDE914013A
:100F8000FFF720FACDE9100107F023FBCDE91201AC
:100F9000DDE91223DDE91801FFF79CF9349A03C259
:100FA000349806C80846CDE90C02DDE918230D99EE
:100FB000FFF790F9CDE90E01DDE91A23FFF790F96B
:100FC000CDE91001DDE91623FFF7E3F8349AC2E911
:100FD0000201DDE91223DDE91801FFF7DAF8349A9E
:100FE000C2E904013498D0E904120846CDE90C02A4
:100FF000DDE918230D99FFF76DF9CDE90E01DDE963
:101000001A23FFF76DF9CDE91001DDE91623FFF78B
:10101000C0F8349AC2E9060100BF00200CE5DDE902
:101020003223DDE92C01FFF755F921F00041CDE92C
:101030002201DDE92423FFF7DFFA01D20120FBE4DE
:10104000DDE93223DDE92C01FFF7A3F8CDE9220128
:10105000DDE92423FFF7B8FA0ED0DDE93223DDE91C
:101060002C01FFF737F921F00041CDE92201DDE93C
:101070002423FFF7A9FA7CD1DDE93223DDE92C0135
:10108000FFF787F8CDE92201DDE92423FFF79CFA79
:1010900070D1DDE93223DDE92C01FFF77AF8024651
:1010A0000B46CDE91A01DDE92401FFF78BF9AE4AC1
:1010B000AE4BCDE91C01FFF76CF8CDE92201DDE96B
:1010C0002223DDE92C01FFF70BF9CDE92001DDE951
:1010D0002223DDE93201FFF703F9CDE91E01DDE945
:1010E0002E23DDE92601FFF76FFA7DD1DDE93023FC
:1010F000DDE92801FFF768FA76D0DDE92E01CDE9B8
:101100002601CDE91C0100204FF08041DDE92423B8
:10111000FFF7E6F8CDE91001DDE92423FFF7E0F859
:10112000CDE91401DDE9242310461946FFF7D8F86C
:10113000CDE90C01DDE91E2310461946FFF7D0F872
:10114000CDE90801DDE9202310461946FFF7C8F86C
:10115000CDE90601DDE90823FFF7BCF8CDE90A0176
:10116000DDE90C23FFF715F8CDE91001DDE92823AF
:1011700001E092E36BE2DDE93001FFF7ABF8CDE986
:101180000E01DDE91023FFF7ABF8CDE91201DDE92F
:101190001423FFF717F9CDE91601DDE92823FEF73F
:1011A000F8FFCDE91A01DDE92823DDE91A01FFF78F
:1011B00091F8CDE91001DDE92823DDE91A01FFF7F7
:1011C00089F8CDE90E01DDE91023FFF789F8CDE9B3
:1011D0001401DDE91C23DDE92601FFF77EF8CDE9E6
:1011E0000C01DDE91C2300E03FE0DDE92601FFF70B
:1011F00074F8CDE90A01DDE90C23FFF771F8CDE9B8
:101200001001DDE9202310461946FFF769F8CDE902
:101210000E01DDE91023FFF75DF8CDE91201DDE9EC
:101220001423FFF757F8CDE9160107F0D2F9CDE9FD
:101230001801DDE91823DDE91C01FFF74BF8349AAA
:1012400003C2349ADDE91A10C2E90210DDE918235D
:10125000DDE91C01FEF79DFF349AC2E90401DDE9D6
:101260001A123498C0E90612F0E1DDE92E23DDE917
:101270002601FFF7A9F974D0DDE93023DDE9280163
:10128000FFF7A2F96DD1DDE93001CDE92801CDE903
:101290001C0100204FF08041DDE92423FFF720F8F6
:1012A000CDE91001DDE92423FFF71AF8CDE9140197
:1012B000DDE9242310461946FFF712F8CDE90C01A9
:1012C000DDE91E2310461946FFF70AF8CDE90801AB
:1012D000DDE9202310461946FFF702F8CDE90601A3
:1012E000DDE90823FEF7F6FFCDE90A01DDE90C236D
:1012F000FEF74FFFCDE91001DDE92E23DDE92601E0
:10130000FEF7EBFFCDE90E01DDE91023FEF7E8FF64
:10131000CDE91201DDE91423FFF754F8CDE91601F8
:10132000DDE92623FEF735FFCDE91A01DDE92823A3
:10133000DDE91C01FEF7CEFFCDE91001DDE9282330
:10134000DDE91C01FEF7C6FFCDE90E01DDE9102342
:10135000FEF7C6FFCDE91401DDE91A23DDE9260118
:1013600006E04BE00000F03F7B14AE47E17A843F9B
:10137000FEF7B3FFCDE90C01DDE91A23DDE9260113
:10138000FEF7ABFFCDE90A01DDE90C23FEF7A8FF6C
:10139000CDE91001DDE9202310461946FEF7A0FF34
:1013A000CDE90E01DDE91023FEF794FFCDE912012E
:1013B000DDE91423FEF78EFFCDE9160107F009F9E8
:1013C000CDE91801349ADDE91A0103C2DDE91823D9
:1013D000DDE91C01FEF77EFF349AC2E90201349A6E
:1013E000DDE91A01C2E90401DDE91823DDE91C0188
:1013F000FEF7CFFE349AC2E9060127E1DDE92E238C
:10140000DDE92601FFF7E0F8F7D0DDE93023DDE97B
:101410002801FFF7D9F8F0D0DDE92E23DDE9260118
:10142000FEF75BFFCDE91001DDE92823DDE930019E
:10143000FEF750FFCDE90E01DDE91023FEF7C2FFF4
:10144000CDE91C010020FE49DDE91C23FEF7BAFFAF
:10145000CDE91A0100204FF08041DDE92423FEF799
:101460003FFFCDE90A01DDE92423FEF739FFCDE98D
:101470000E01DDE9242310461946FEF731FFCDE9C0
:101480000601DDE91E2310461946FEF729FFCDE9C6
:101490000201DDE9202310461946FEF721FFCDE9C0
:1014A0000001DDE90223FEF715FFCDE90401DDE9C6
:1014B0000623FEF76EFECDE90A01DDE92E23DDE904
:1014C0002601FEF70AFFCDE90801DDE90A23FEF750
:1014D00007FFCDE90C01DDE90E23FEF773FFCDE92F
:1014E0001001DDE92623FEF754FECDE91801DDE900
:1014F0001823DDE92601FEF7F0FECDE90E01DDE956
:101500001C23FEF7EDFECDE91001DDE92823FEF7EF
:1015100040FECDE91601DDE92823DDE91601FEF7DD
:10152000D9FECDE90C01DDE92823DDE91601FEF73E
:10153000D1FECDE90A01DDE90C23FEF7D1FECDE9AC
:101540001001DDE91823DDE92601FEF7C6FECDE92D
:101550000801DDE91823DDE92601FEF7BEFECDE92D
:101560000601DDE90823FEF7BBFECDE90C01DDE94C
:10157000202310461946FEF7B3FECDE90A01DDE946
:101580000C23FEF7A7FECDE90E01DDE91023FEF7DF
:10159000A1FECDE91401DDE91A2310461946FEF734
:1015A0009FFE0022A74BCDE90C01FEF7F2FD02469B
:1015B0000B46CDE90E01DDE91401FEF703FFCDE98D
:1015C000100107F006F8CDE91201DDE91223DDE98B
:1015D0001801FEF77FFE349A03C2349903C9CDE99E
:1015E0000C01DDE91823FEF775FECDE90E01DDE9FA
:1015F0001A23FEF775FECDE91001DDE91623FEF78B
:10160000C8FD349AC2E90201DDE91223DDE91801BF
:10161000FEF7BFFD349AC2E90401349841690069BC
:10162000CDE90C01DDE91823FEF754FECDE90E01EA
:10163000DDE91A23FEF754FECDE91001DDE916239A
:10164000FEF7A7FD349AC2E9060100BF22E1DDE9F9
:101650003223DDE92C01FEF73DFE21F00041CDE90A
:101660002201DDE92423FEF7AFFFEFD1DDE92E23D0
:10167000DDE92601FEF7A8FF5ED1DDE93023DDE9D3
:101680002801FEF7A1FF57D0DDE93223DDE92C0167
:10169000FEF7B2FF27D2DDE93023DDE92801FEF7AE
:1016A000ABFF0FD2DDE92E01CDE92601349A03C24A
:1016B000DDE92C23DDE92801FEF70CFE349AC2E9AE
:1016C0000201E7E0DDE92E10CDE92610349AC2E9E7
:1016D0000010DDE92C23DDE92801FEF75AFD349ADC
:1016E000C2E90201D6E0DDE93023DDE92801FEF799
:1016F00083FF10D2DDE92E10CDE92610349AC2E91D
:101700000010DDE92C23DDE92801FEF742FD349AC3
:10171000C2E90201BEE0DDE92E10CDE92610349ABF
:10172000C2E90010DDE92C23DDE92801FEF7D2FD36
:10173000349AC2E90201ADE0DDE92E23DDE926019C
:10174000FEF742FF5BD0DDE93023DDE92801FEF73B
:101750003BFF54D1DDE93223DDE92C01FEF74CFFDC
:1017600026D2DDE92E23DDE92601FEF745FF0FD263
:10177000DDE92C23DDE92601FEF7ACFD349A03C236
:10178000DDE93010CDE92810349AC2E9021081E079
:10179000DDE92C23DDE92601FEF7FBFC349A03C2C8
:1017A000DDE93010CDE92810349AC2E9021071E069
:1017B000DDE92E23DDE92601FEF71EFF0FD2DDE96C
:1017C0002C23DDE92601FEF7E4FC349A03C2DDE9AF
:1017D0003010CDE92810349AC2E902105AE0DDE950
:1017E0002C23DDE92601FEF775FD349A03C2DDE9FD
:1017F0003010CDE92810349AC2E902104AE0DDE940
:101800002E23DDE92601FEF7DFFE43D0DDE930239C
:10181000DDE92801FEF7D8FE3CD000BF00BFDDE9BE
:101820002E23DDE92601FEF755FDCDE91E01DDE998
:101830002C23FEF755FDCDE92001DDE9242303E04B
:101840000000F0BF0000F03FFEF7BCFDCDE9220133
:10185000DDE92623FEF79DFC349A03C2DDE930233F
:10186000DDE92801FEF736FDCDE91E01DDE92C2377
:10187000FEF736FDCDE92001DDE92423FEF7A2FDC8
:10188000CDE92201DDE92823FEF783FC349AC2E981
:10189000020100BF0020FFF7CFB8DDE93223DDE908
:1018A0002C01FEF776FCCDE92201DDE92423FEF7C9
:1018B000A3FE7CD2DDE93223DDE92C01FEF70AFD2F
:1018C00021F00041CDE92201DDE92423FEF77CFE71
:1018D000EFD2DDE92E23DDE92601FEF775FE67D1A3
:1018E000DDE93023DDE92801FEF76EFE60D0DDE999
:1018F0002E01CDE92601CDE9220100204FF08041E3
:10190000DDE92423FEF7ECFCCDE91601DDE9242313
:10191000FEF7E6FCCDE91A01DDE92423104619465D
:10192000FEF7DEFCCDE91201DDE93223104619464F
:10193000FEF7D6FCCDE90E01DDE92C231046194651
:10194000FEF7CEFCCDE90C01DDE90E23FEF7C2FC6B
:10195000CDE91001DDE91223FEF71BFCCDE91601EC
:10196000DDE92823DDE93001FEF7B4FCCDE91401FF
:10197000DDE91623FEF7B4FCCDE91801DDE91A23F1
:10198000FEF720FDCDE91C01DDE92823FEF701FC6F
:10199000CDE92001DDE92823DDE92001FEF79AFCED
:1019A000CDE91601DDE92823DDE9200101E041E26E
:1019B00053E0FEF78FFCCDE91401DDE91623FEF7B5
:1019C0008FFCCDE91A01DDE92223DDE92601FEF7CE
:1019D00084FCCDE91201DDE92223DDE92601FEF7D1
:1019E0007CFCCDE91001DDE91223FEF779FCCDE99D
:1019F0001601DDE92C2310461946FEF771FCCDE9EE
:101A00001401DDE91623FEF765FCCDE91801DDE9D7
:101A10001A23FEF75FFCCDE91C0106F0DAFDCDE9E3
:101A20001E01DDE91E23DDE92201FEF753FC349A95
:101A300003C2349ADDE92010C2E90210DDE91E2359
:101A4000DDE92201FEF7A5FB349AC2E90401349ACC
:101A5000DDE92010C2E90610EAE1DDE92E23DDE927
:101A60002601FEF7B1FD7CD0DDE93023DDE9280158
:101A7000FEF7AAFD75D1DDE93010CDE92810CDE9DA
:101A8000221000204FF08041DDE92423FEF728FCDE
:101A9000CDE91601DDE92423FEF722FCCDE91A0188
:101AA000DDE9242310461946FEF71AFCCDE91201A0
:101AB000DDE9322310461946FEF712FCCDE90E018E
:101AC000DDE92C2310461946FEF70AFCCDE90C018E
:101AD000DDE90E23FEF7FEFBCDE91001DDE912235F
:101AE000FEF757FBCDE91601DDE92E23DDE92601DE
:101AF000FEF7F3FBCDE91401DDE91623FEF7F0FB59
:101B0000CDE91801DDE91A23FEF75CFCCDE91C01E3
:101B1000DDE92623FEF73DFBCDE92001DDE92823A1
:101B2000DDE92201FEF7D6FBCDE91601DDE9282328
:101B3000DDE92201FEF7CEFBCDE91401DDE9162334
:101B4000FEF7CEFBCDE91A01DDE92023DDE9260110
:101B5000FEF7C3FBCDE91201DDE92023DDE9260113
:101B600000E03DE0FEF7B9FBCDE91001DDE912230D
:101B7000FEF7B6FBCDE91601DDE92C231046194628
:101B8000FEF7AEFBCDE91401DDE91623FEF7A2FB5B
:101B9000CDE91801DDE91A23FEF79CFBCDE91C0114
:101BA00006F017FDCDE91E01349ADDE9200103C2DC
:101BB000DDE91E23DDE92201FEF78CFB349AC2E940
:101BC0000201349ADDE92001C2E90401DDE91E23A6
:101BD000DDE92201FEF7DDFA349AC2E9060127E1C8
:101BE000DDE92E23DDE92601FEF7EEFCF7D0DDE985
:101BF0003023DDE92801FEF7E7FCF0D0DDE92E23F4
:101C0000DDE92601FEF769FBCDE91601DDE92823B0
:101C1000DDE93001FEF75EFBCDE91401DDE91623B5
:101C2000FEF7D0FBCDE9220100208349DDE9222324
:101C3000FEF7C8FBCDE9200100204FF08041DDE92F
:101C40002423FEF74DFBCDE91001DDE92423FEF747
:101C500047FBCDE91401DDE9242310461946FEF7C0
:101C60003FFBCDE90C01DDE9322310461946FEF7B2
:101C700037FBCDE90801DDE92C2310461946FEF7B4
:101C80002FFBCDE90601DDE90823FEF723FBCDE9B3
:101C90000A01DDE90C23FEF77CFACDE91001DDE94C
:101CA0002E23DDE92601FEF718FBCDE90E01DDE963
:101CB0001023FEF715FBCDE91201DDE91423FEF731
:101CC00081FBCDE91601DDE92623FEF762FACDE9B5
:101CD0001E01DDE91E23DDE92601FEF7FEFACDE94E
:101CE0001401DDE92223FEF7FBFACDE91601DDE957
:101CF0002823FEF74EFACDE91C01DDE92823DDE9B2
:101D00001C01FEF7E7FACDE91201DDE92823DDE940
:101D10001C01FEF7DFFACDE91001DDE91223FEF721
:101D2000DFFACDE91601DDE91E23DDE92601FEF724
:101D3000D4FACDE90E01DDE91E23DDE92601FEF727
:101D4000CCFACDE90C01DDE90E23FEF7C9FACDE9A5
:101D50001201DDE92C2310461946FEF7C1FACDE940
:101D60001001DDE91223FEF7B5FACDE91401DDE932
:101D70001623FEF7AFFACDE91A01DDE9202310465C
:101D80001946FEF7ADFA00222C4BCDE91201FEF701
:101D900000FA02460B46CDE91401DDE91A01FEF70F
:101DA00011FBCDE9160106F014FCCDE91801DDE9BF
:101DB0001823DDE91E01FEF78DFA349A03C2349828
:101DC00003C8CDE91201DDE91E23FEF783FACDE950
:101DD0001401DDE92023FEF783FACDE91601DDE9E0
:101DE0001C23FEF7D6F9349AC2E90201DDE9182373
:101DF000DDE91E01FEF7CDF9349AC2E904013498F9
:101E000041690069CDE91201DDE91E23FEF762FA9E
:101E1000CDE91401DDE92023FEF762FACDE91601D0
:101E2000DDE91C23FEF7B5F9349AC2E9060100BFCB
:101E3000002030E500202EE50000F0BF0000F03F5C
:101E400021B1026842F00102026004E002684FF62C
:101E5000FE731A400260704701684FF6FE7211402F
:101E600001600021016041608160C1604B4988428E
:101E700008D14A490839496841F00F01474A083AF0
:101E800051608AE045491431884208D143490839F4
:101E9000496841F0F001414A083A51607DE03F490C
:101EA0002831884208D13D490839496841F47061B8
:101EB0003A4A083A516070E038493C31884208D1CA
:101EC00036490839496841F47041344A083A51604A
:101ED00063E032495031884208D1304908394968B5
:101EE00041F470212D4A083A516056E02B49643183
:101EF000884208D129490839496841F47001274AC4
:101F0000083A516049E025497831884208D123498F
:101F10000839496841F07061204A083A51603CE054
:101F20001F49884206D1011F096841F00F01021FB5
:101F3000116032E01A491431884208D11849091F4A
:101F4000096841F0F001164A121F116025E014499A
:101F50002831884208D11249091F096841F470618B
:101F60000F4A121F116018E00D493C31884208D118
:101F70000B49091F096841F47041094A121F116099
:101F80000BE007495031884207D10549091F09680C
:101F900041F47021024A121F11607047080002408C
:101FA000080402401AB103680B43036002E00368AF
:101FB0008B430360704710B50022026847F6F07348
:101FC0009A430C6A8B6823430C6923434C6923436F
:101FD0008C692343CC6923434C6A23438C6A234393
:101FE0001A430260CB6843600B6883604B68C36030
:101FF00010BD41607047000010B5044631480078BC
:1020000048B94FF6FF7005F09BFB002005F053FB2D
:1020100001202C4908702B48007801280ED100219E
:102020000F2005F0D7FA284908602849084018B160
:1020300002202449087001E0002010BD21480078EA
:10204000022811D12048008800F4804018B10320F4
:102050001C49087008E01E4A00210F2005F02BFCE7
:10206000002018490870E8E716480078032826D1B0
:102070004FF4804200210F2005F01DFC00211020AC
:1020800005F0A8FAC0F30900124908600846008864
:1020900081B20022104805F0F1FA0F48C078EF280D
:1020A00009D10D484078A04205D1042005490870A7
:1020B00009480079C1E7002002490870BDE7002007
:1020C000BBE700004A000020E400002000D02724E5
:1020D00000902724DC0000206A06002070B5054629
:1020E000BC48007850B90020BB49088005F028FBA7
:1020F000002005F0E0FA0120B6490870B5480078E4
:1021000001280ED100210F2005F064FAB3490860C0
:10211000B349084018B10220AE49087001E0002020
:1021200070BDAC480078022811D1AC48008800F49A
:10213000804018B10320A749087008E0A94A00218F
:102140000F2005F0B8FB0020A2490870E8E7A1487D
:102150000078032824D14FF4804200210F2005F09D
:10216000AAFB0021102005F035FAC0F309009E49B2
:1021700008600846008881B200229C4805F07EFA7B
:102180009A48C078AB2807D198484078A84203D134
:1021900004209049087003E000208E490870BFE7D2
:1021A0008C480078042851D1002404E08F48005D59
:1021B0008F490855641C1E2CF8D38C480078FF28E2
:1021C00018D18A4800798B490880884881794079FC
:1021D00001EB0020884908808448017AC07901EB2E
:1021E0000020864908808148817A407A01EB0020EE
:1021F0008249488005F010FC8149486008464168E2
:102200000A4600237A48083005F0F9FB7848057043
:1022100076480078764948707A4800788870BC2003
:10222000C8700022202005F092FB0021202005F03C
:10223000A1FB002005F069FA41F2883005F080FA30
:10224000022005F0BBFA0520624908706148007859
:1022500005280ED100210F2005F0BCF95F49086068
:102260005F49084018B106205A49087001E0002073
:1022700056E75848007806281ED162480068401C7E
:1022800028B160480068401C5E49086002E00020F8
:102290005C4908605148008800F4804018B107206C
:1022A0004C49087008E04F4A00210F2005F003FB5D
:1022B00000204849087033E746480078072824D1B1
:1022C0004FF4814200210F2005F0F5FA0021102083
:1022D00005F080F900F07F00434908600846008857
:1022E00081B20022414805F0C9F94048C078CD28A4
:1022F00007D13E484078A84203D1082035490870EC
:1023000003E00020334908700AE7324800780828C3
:1023100037D1002404E03548005D35490855641C78
:102320001E2CF8D332480570304800783049487088
:10233000DE20C87005F086FB3149886005F06CFB33
:102340002F494861084681680A46002328480C3016
:1023500005F055FB2A4841690A46002324481830F5
:1023600005F04DFB00222249202005F0F0FA002163
:10237000202005F0FFFA002005F020FA0920154979
:10238000087014480078092821D100210F2005F099
:1023900021F900F08000C0B1802200210F2005F05B
:1023A0008AFA00200B4908700221174800F046FF06
:1023B0000E480078FF2806D114480088401C1349B5
:1023C00008800220ACE60120AAE60020A8E6002052
:1023D000A6E600004900002092000020E400002052
:1023E00000D0272400902724DC0000206A0600206B
:1023F0009E000020380000203A0000203C00002011
:10240000B4060020E0000020000C01404200002043
:102410002DE9F04F97B0824689469346FE480078F2
:1024200000287BD1002403E00020FC490855641CEF
:102430001E2CF9D3F94880F800A080F80190F848E4
:102440000078F6498870AB20C87000200871BBF195
:10245000010F15D101200871F24931F81900C11797
:1024600000EB1161090AED4A5171EE4931F819008A
:10247000C11700EB11610912A0EB0121917137E046
:10248000BBF1020F34D10220E449087109EB490184
:10249000E54A32F81100C11700EB1161090ADF4A61
:1024A000D17109EB4901E04A32F81100C11700EB84
:1024B00011610912A0EB0121D84A117209EB4901FF
:1024C000D94A02EB41014888C11700EB1161090AA2
:1024D000D24A517209EB4901D34A02EB41014888C3
:1024E000C11700EB11610912A0EB0121CB4A9172D7
:1024F0000022CA49202005F02AFA0021202005F0F8
:1025000039FA002005F001F94EF6602005F018F9BF
:10251000022005F053F90120BF490870BE48007839
:10252000012810D100210F2005F054F8BF490860A0
:10253000BF49084018B10220B749087003E00020E5
:1025400017B0BDE8F08FB448007802281ED1B44817
:102550000068401C28B1B2480068401CB0490860BF
:1025600002E00020AE490860B048008800F48040D6
:1025700018B10320A849087008E0AE4A00210F20D6
:1025800005F099F90020A4490870D9E7A24800781D
:1025900003282DD14FF4814200210F2005F08BF943
:1025A0000021102005F016F800F07F00A249086015
:1025B0000846008881B20022A04805F05FF89F48D5
:1025C000C078BC280BD19D480078484507D19B486E
:1025D0004078504503D104208F49087008E0954A9F
:1025E00000210F2005F067F900208B490870A7E74C
:1025F00089480078042840D1002404E08F48005D19
:1026000086490855641C1E2CF8D305F01BFA8C492A
:10261000086005F001FA8A49C860084601680A4660
:1026200000237E48001D05F0EAF98548C1680A4686
:1026300000237A48103005F0E2F9784880F800A0CD
:1026400080F80190CD207549C87075480078887071
:102650000022202005F07BF90021202005F08AF9D6
:10266000002005F052F841F2883005F069F80220A8
:1026700005F0A4F805206849087067480078052827
:102680000ED100210F2004F0A5FF684908606849B9
:10269000084018B106206049087001E000204FE7AB
:1026A0005D48007806281ED15D480068401C28B1AE
:1026B0005B480068401C5A49086002E00020584905
:1026C00008605A48008800F4804018B10720524939
:1026D000087008E0574A00210F2005F0ECF80020B0
:1026E0004D4908702CE74C48007807282DD14FF44D
:1026F000814200210F2005F0DEF80021102004F0B7
:1027000069FF00F07F004C4908600846008881B2EC
:1027100000224A4804F0B2FF4848C078DE280BD1B6
:1027200046480078484507D144484078504503D191
:1027300008203949087008E03E4A00210F2005F0C2
:10274000BAF8002034490870FAE6334800780828BF
:1027500078D1002404E03948005D30490855641CF4
:102760001E2CF8D310A93548001D05F02FF911A92A
:102770003248083005F02AF912A930480C3005F02B
:1027800025F913A92D48103005F020F915A92B487B
:10279000183005F01BF92A49109808601198486014
:1027A000129888601398C86005F04CF924490861B4
:1027B00015984861C968224A1268881AFDF78BFE8D
:1027C00005460E461E4949691D4A9268881AFDF75A
:1027D00082FE074688461A490969194AD268881A4A
:1027E000FDF779FECDE90E0115498968144A526852
:1027F000881AFDF770FECDE90C013A46434628469B
:102800003146FDF7C6FCCDE90001DDE90E23FDF7F9
:10281000C0FCCDE9020116E0480000209E00002027
:10282000E000002010020020D8020020E400002078
:1028300000D0272400902724DC0000206A06002016
:10284000B406002060E0DDE90C23FDF7A2FCCDE931
:102850000601DDE90C23DDE90E01FDF741FD3A46F5
:102860004346CDE9020128463146FDF739FDCDE961
:102870000001DDE90223FDF72DFDCDE90401DDE9CD
:102880000623FDF79FFDCDE90801FDF764FECDE9C4
:102890000A01DDE90A01FDF72BFE1C4A1C4BCDE9BC
:1028A0000801FDF71DFD1B4A03C24FF098521A4B59
:1028B000184903C9FDF714FD184A03C2174903C993
:1028C000FDF7B2FE164907904A780878079904F098
:1028D0004DFDCDE9080111480CC80898FDF7FDFC35
:1028E000104A03C20022104B0E4903C9FDF7F8FC41
:1028F000CDE90801FDF710FE0C49086000200C49E5
:1029000008700A4800681BE6002019E6FA48CE3B2A
:102910001835B13DC000002019DDB141C8000020CC
:1029200000000020D000002000005940D800002006
:1029300048000020F8B504460D46174600266A48B0
:10294000007800282CD16949088000BF03E00020EE
:1029500067498855761C1E2EF9D36548047045706A
:102960006448007862498870EF20C8700846077193
:102970000022202004F0EBFF0021202004F0FAFFC9
:10298000002004F0C2FE002004F018FF41F2707035
:1029900004F0D6FE072004F036FB012052490870EF
:1029A00051480078012805D1002004F084FE02205F
:1029B0004D4908704C48007802280ED100210F20A4
:1029C00004F008FE4C4908604C49084018B1032047
:1029D0004549087001E00020F8BD4348007803280D
:1029E0002CD144480068401C28B142480068401C73
:1029F0004049086002E000203E4908603E480088E7
:102A000000F4804018B104203749087016E03C4AB1
:102A100000210F2004F04FFF34480088072803DD11
:102A200000203149087007E001202F4908702F4825
:102A30000088401C2D4908800020CDE72A480078F6
:102A4000042841D14FF4814200210F2004F033FFCC
:102A50000021102004F0BEFD00F07F00294908602D
:102A60000846008881B20022274804F007FE264865
:102A7000C078FF280BD124480078A84207D122480B
:102A80004078A04203D10520174908701CE00020BF
:102A90001E4908801A4A00210F2004F00CFF134839
:102AA0000088072803DD00200F4908700AE0002095
:102AB0001649088001200C4908700C480088401C09
:102AC0000A490880002087E707480078052809D1CF
:102AD00069460D48001D04F079FF00200249087086
:102AE000009879E7002077E74D0000204E00002095
:102AF0009E000020E0000020E400002000D02724F9
:102B000000902724DC0000206A06002092000020AC
:102B10002DE9F04105460E461746002403E000204B
:102B200014490855641C1E2CF9D3124805704670D0
:102B3000114800780F498870FF20C87039460D4849
:102B4000001D04F053FF00220A49202004F0FFFE7C
:102B50000021202004F00EFF002004F0D6FD41F2F9
:102B6000883004F0EDFD002004F028FE0020BDE8D0
:102B7000F08100009E000020E000002010B500243D
:102B80001248008812490988884204D010480088F9
:102B90000E49088001240D4840880E490988884262
:102BA00004D00C48008809494880012407488088DF
:102BB00009490988884204D0074800880349888069
:102BC0000124012C01D100F009F810BD980000206B
:102BD00022000020240000202600002010B50F480D
:102BE0000F49098810F821000E4908700E48007836
:102BF000C87105F0B7FC05F0E7FC012004F048FCC3
:102C000005F0DDFC074804F04BFA0848008804F0A2
:102C10008EFD002004F0CAFD10BD000078000020E9
:102C200022000020000000202400002026000020B8
:102C3000014600200022044B1B6803EA01020AB18E
:102C4000012000E0002070470004014005490968A8
:102C500021F01001034A1160114609680143116017
:102C6000704700000020024001460020034A10681F
:102C700000F0380008431060704700000020024058
:102C800070B5CA226249634803F07CFA6048008844
:102C9000614908805E484088604908805C488088B7
:102CA0005F4908805A48C0885E49088058480089B2
:102CB0005D490880564840895C49088054488089AD
:102CC0005B4908805248C0895A4908805048008AA8
:102CD000594908804E48408A584908804C48808AA3
:102CE000574908804A48C08A56490880002409E0AC
:102CF00004F10C00464931F81000534921F8140042
:102D0000601C84B2032CF3DB002513E000240DE0EB
:102D10000F2000EB850020443D4931F810004B495D
:102D200001EBC50121F81400601C84B2042CEFDB18
:102D3000681C85B2072DE9DB002412E004F12B00AA
:102D4000334931F81000010A6000401C404A115418
:102D500004F12B002E4911F8100002F81400601C39
:102D600084B2322CEADB2A48B0F8C6003949088020
:102D700008460088AB284AD0AB20088007202649A7
:102D8000088001202549088000202649088026491E
:102D900008802349088025490880012024490880AB
:102DA00000202449088048F2CF00234908800320EE
:102DB000224908800A2022490880012021490880F0
:102DC000002405E00020204921F81400601C84B292
:102DD000032CF7DB00250DE0002407E000201B4951
:102DE00001EBC50121F81400601C84B2042CF5DB52
:102DF000681C85B2072DEFDB002404E00020144995
:102E00000855601C84B2642CF8DB00F025F870BD16
:102E10005438002038FB00080C0000200E00002071
:102E200010000020140000201600002012000020D6
:102E3000220000202400002026000020280000207E
:102E40002A0000201E00002018000020640100203D
:102E50009C0100202000002070B5364800883649CB
:102E60000880364800884880354800888880354882
:102E70000088C88034480088088134480088488128
:102E800033480088888133480088C88132480088E8
:102E90000882324800884882314800888882314858
:102EA0000088C882002409E02F4830F8141004F18B
:102EB0000C00214A22F81010601C84B2032CF3DBB2
:102EC000002513E000240DE0284800EBC50030F891
:102ED00014000F2101EB85012144174A22F811004B
:102EE000601C84B2042CEFDB681C85B2072DE9DB83
:102EF000002412E06000401C1D49085C4FF47F4133
:102F000001EA00201A4A12F81410084304F12B01B8
:102F1000094A22F81100601C84B2322CEADB154801
:102F200000880549A1F8C600CA22134803F060F9D9
:102F300070BD00000C000020543800200E0000205E
:102F400010000020140000201600002012000020B5
:102F5000220000202400002026000020280000205D
:102F60002A0000201E00002018000020640100201C
:102F70009C0100202000002038FB000808B501213A
:102F80001D2002F085FE4FF6FF70ADF80000002016
:102F90008DF803006946304800F066F869462F480E
:102FA00000F062F869462E4800F05EF801212D48D5
:102FB00000F0E6F84FF48040ADF8000004208DF8F2
:102FC00003006946254800F04FF80220ADF80000E4
:102FD00010208DF8030003208DF8020069461F4879
:102FE00000F042F80120ADF8000010208DF8030039
:102FF00003208DF802006946174800F035F80121DA
:10300000154800F019F94FF44050ADF800001020B9
:103010008DF8030003208DF8020069460F4800F088
:1030200023F84FF440510D4800F006F94FF44040AA
:10303000ADF8000048208DF8030003208DF8020051
:103040006946064800F010F84FF44041034800F08C
:10305000F3F8002008BD000000080140000C01400A
:1030600000100140000230002DE9F0410246002529
:103070000026002000230024002791F803C00CF054
:103080000F0591F803C00CF0100CBCF1000F03D039
:1030900091F802C04CEA050591F800C0BCF1000FA0
:1030A00031D0146800202BE04FF0010C0CFA00F333
:1030B000B1F800C00CEA03069E4220D183004FF015
:1030C0000F0C0CFA03F7BC4305FA03FC4CEA0404AA
:1030D00091F803C0BCF1280F06D14FF0010C0CFA97
:1030E00000FCC2F814C00AE091F803C0BCF1480F1C
:1030F00005D14FF0010C0CFA00FCC2F810C0401CC6
:103100000828D1D31460B1F800C0BCF1FF0F34DD42
:10311000546800202EE000F1080C4FF0010808FA76
:103120000CF3B1F800C00CEA03069E4221D18300E3
:103130004FF00F0C0CFA03F7BC4305FA03FC4CEA02
:10314000040491F803C0BCF1280F05D100F1080C6C
:1031500008FA0CF8C2F8148091F803C0BCF1480FCB
:1031600007D100F1080C4FF0010808FA0CF8C2F87A
:103170001080401C0828CED35460BDE8F0810000C8
:10318000F0B50A46002300240021002500F0004687
:10319000B6F1004F02D11D4EF16901E01B4E71687E
:1031A000C0F3034583B200F44016B6F5401F08D1C2
:1031B00021F07061154E766826F07066134F7E60C0
:1031C00012E000F48016B6F5801F06D1032606FA39
:1031D00005F4A14341F0706106E0460D360103FAA3
:1031E00006F6B14341F0706122B1460D360103FA93
:1031F00006F6314300F00046B6F1004F02D1034E0F
:10320000F16101E0014E7160F0BD0000000001407D
:103210000246002093680B400BB1012000E0002023
:10322000704702460020D3680B400BB1012000E03C
:1032300000207047416170470161704770B50446D6
:103240000D4629462046FFF7ECFF08B9012000E0B3
:103250000020064632462946204600F001F870BD9F
:103260000AB1016100E0416170472DE9F04FA3B060
:1032700004460D4616461F46DDE936ABDDE93489C6
:1032800052465B4620462946FDF72AF8CDE91C0147
:1032900050465946DDE92C23FDF722F8CDE9180107
:1032A00020462946DDE93223FDF71AF8CDE914015D
:1032B000DDE93223DDE92C01FDF712F8CDE910013B
:1032C00040464946DDE92E23FDF70AF8CDE90C0119
:1032D0002EA80FC8FDF704F832463B46CDE9080199
:1032E00040464946FCF7FCFFCDE90401304639462B
:1032F000DDE93023FCF7F4FFCDE90201DDE9042329
:10330000FCF7E8FFCDE90601DDE90823FCF7E2FF61
:10331000CDE90A01DDE90C23FCF73BFFCDE90E0105
:10332000DDE91023FCF735FFCDE91201DDE91423B7
:10333000FCF7D0FFCDE91601DDE91823FCF7CAFF41
:10334000CDE91A01DDE91C23FCF723FFCDE92001BB
:1033500040464946DDE92E23FCF7C2FFCDE91801BE
:10336000DDE93223FCF7BCFFCDE91C01DDE92E23AA
:10337000DDE93001FCF7B4FF52465B46CDE91401AC
:10338000FCF7AEFFCDE9180140464946DDE932239E
:10339000FCF7A6FF32463B46CDE91001FCF7A0FF43
:1033A00052465B46CDE91401DDE93001FCF798FF98
:1033B00032463B46CDE90C01FCF792FFCDE9100106
:1033C00020462946DDE92E23FCF78AFF52465B465C
:1033D000CDE90801FCF784FFCDE90C0150465946C0
:1033E000DDE92C23FCF77CFF32463B46CDE90401A6
:1033F000FCF776FFCDE9080120462946DDE92E23BA
:10340000FCF76EFFCDE90001DDE93223FCF768FF30
:10341000CDE90401DDE93223DDE92C01FCF760FF91
:1034200032463B46CDE90001FCF75AFFCDE90201E7
:10343000DDE90423FCF74EFFCDE90601DDE90823B1
:10344000FCF748FFCDE90A01DDE90C23FCF7A1FEFA
:10345000CDE90E01DDE91023FCF79BFECDE9120159
:10346000DDE91423FCF736FFCDE91601DDE9182369
:10347000FCF730FFCDE91A01DDE91C23FCF789FEDA
:10348000CDE91E01DDE92023FCF79CFF389AC2E953
:10349000020142464B46DDE93001FCF71BFFCDE956
:1034A000180130463946DDE92E23FCF713FFCDE93C
:1034B0001601DDE91823FCF713FFCDE91C012046B6
:1034C0002946DDE92C23FCF708FF52465B46CDE98F
:1034D0001801DDE93201FCF7FDFECDE91601DDE959
:1034E0001823FCF7FDFECDE91A01DDE91C23FCF7EA
:1034F00050FE42464B46CDE92001DDE93001FCF7A4
:10350000E9FECDE9180130463946DDE92E23FCF706
:10351000E1FE22462B46CDE91401FCF7E1FECDE9A0
:103520001601DDE91823FCF7DBFECDE91C0120467E
:103530002946DDE92C23FCF7D0FE52465B46CDE957
:103540001401DDE93201FCF7C5FE42464B46CDE9E8
:103550001001FCF7C5FECDE91201DDE91423FCF7EB
:10356000BFFECDE9180120462946DDE92C23FCF7F2
:10357000B4FE42464B46CDE91001DDE93001FCF7CF
:10358000A9FE52465B46CDE90C01FCF7A9FECDE948
:103590000E01DDE91023FCF7A3FECDE9140120465E
:1035A0002946DDE92C23FCF798FE42464B46CDE93F
:1035B0001001DDE93001FCF78DFE32463B46CDE9D6
:1035C0000C01FCF78DFECDE90E01DDE91023FCF7BF
:1035D00087FECDE91201DDE91423FCF77BFECDE97E
:1035E0001601DDE91823FCF7D4FDCDE91A01DDE968
:1035F0001C23FCF7CEFDCDE91E01DDE92023FCF7FD
:10360000E1FE389A03C223B0BDE8F08F2DE9FF5FD9
:1036100090B0DDF8B0A024AE96E8C003DDE91E4509
:103620007A48CDE906670890DDE92201CDE9040179
:10363000DDE92001CDE90045CDE9020110A80FC860
:10364000FDF7ACF9714820300890DDE92A01CDE999
:103650000601DDE928018DE83003CDE9040110A859
:103660000FC8FDF79BF9694840300890DDE92A0151
:10367000CDE90601DDE928018DE8C003CDE90401AB
:1036800020A80FC8FDF78AF961480C905F48C16B0C
:10369000806BCDE90A015D48416B006BCDE9080103
:1036A0005A48C16A806ACDE906015849D1E9080142
:1036B000CDE904015549D1E90601CDE9020153499B
:1036C000D1E90401CDE900015049D1E902B303C9B0
:1036D0005A46CDE90E01FFF7C8FD4D4810304B4961
:1036E00050310C90D1E90201CDE90A014749D1E9F5
:1036F0001401CDE908014549D1E91201CDE90601DE
:103700004249D1E91001CDE904014049D1E906015E
:10371000CDE902013D4841690069CDE900013B481E
:10372000D0E902B303C85A46CDE90E01FFF79DFD6B
:10373000374820300C903548C16D806DCDE90A01C5
:103740003248416D006DCDE908013048C16C806C94
:10375000CDE906012D49D1E91001CDE904012B483D
:10376000C16B806BCDE902012848416B006BCDE94C
:1037700000012648D0E90AB3416A006A5A46CDE9F9
:103780000E01FFF772FD2249D1E90401CDE90C01D8
:103790001F49D1E900B1024658460D9BFCF7F9FCE0
:1037A000CDE90E011A48D0E908B35A460E98FCF745
:1037B000F0FCCAE900011648D0E906B3C168806888
:1037C0005A46CDE90C01FCF7E4FCCDE90E011048A6
:1037D000D0E90AB35A460E98FCF7DBFCCAE90201AD
:1037E00000220C4BDAE900B15846FCF7EBFDCAE9C0
:1037F00000010022074BDAE902B15846FCF7E2FD6E
:10380000CAE9020114B0BDE8F09F0000483E002064
:10381000A83E00200000084010B54FF48051094830
:10382000FFF70AFD4FF400510648FFF705FD4FF47E
:1038300000510448FFF7FEFC4FF480510148FFF7A8
:10384000F9FC10BD000C014010B54FF48051074841
:10385000FFF7F2FC4FF400510448FFF7EBFC4FF484
:1038600000510248FFF7E8FC10BD0000000C0140C9
:1038700010B54FF480510448FFF7DEFC4FF480513F
:103880000148FFF7D7FC10BD000C014010B54FF404
:1038900080414048FFF7BCFCB8B93F480088012888
:1038A00013D13E480088401C3C49088008460088E7
:1038B000032801D100200880FFF7CEFA01F022FC96
:1038C00001F032FD0020344908804FF400413148B6
:1038D000FFF79EFC00284AD131480088401C30493F
:1038E00008802E48008820B101281AD0022834D13F
:1038F00032E02C49087828490988012901D1411C66
:1039000088B2274909880A2900DD0020632800DDE4
:1039100000202449098801F47F410143214A118094
:103920001BE020490988080A1B490988012901D19F
:10393000411C88B21A4909880A2900DD002006289E
:1039400000DD0020174909784FF47F4202EA002287
:103950001143144A118000E000BF00BFFFF77CFA5A
:1039600001F0D0FB01F0E0FC00200B4908804FF48F
:1039700080410848FFF74CFC01280AD1C1030548E3
:10398000FFF746FC012804D10349088000200449C0
:10399000088010BD000C014096000020140000209B
:1039A00046000020160000202DE9FF5F90B014466D
:1039B0001D46DDE91F7A1E9ECDE90E67CDE90C4557
:1039C00000BF2A4800EBCA0003C8CDE90A01284815
:1039D00000EBCA00D0E900B15846DDE90C23FCF742
:1039E000D8FBCDE90801DDE90E23DDE90801FCF78C
:1039F000D0FB02460B46CDE90201DDE90801FCF7E8
:103A0000E1FCCDE90401DDE90A23DDE91001FCF761
:103A100061FCCDE90001DDE90423FCF761FCCDE99F
:103A20000201DDE90A23FCF7B4FB80468946002049
:103A30001049DDE90423FCF74DFCCDE90201DDE985
:103A40000823FCF74DFCCDE90601094A02EBCA0246
:103A5000DDE90610C2E90010044800EBCA00C0E925
:103A600000894046494614B0BDE8F09FD0140020BC
:103A7000D02400200000F03F2DE9F34F83B00C4626
:103A80000398FCF717FD07460022114BFCF728FCB2
:103A900005460E460F4931F91400FCF70BFD0746A9
:103AA00000220B4BFCF71CFC2A463346CDE90001F3
:103AB000FCF76FFB8246FCF72FFD81460FFA89F079
:103AC000044921F81400484605B0BDE8F08F000015
:103AD0000000E03FD00600202DE9F05F0446884654
:103AE00091464048C0F80090A8F10200C1B22046BB
:103AF000FCF738FF824620783B49098888426ED11E
:103B0000A8F10200205CB0EB1A2F68D1A8F10100E7
:103B1000205C0AF0FF01884261D14FF0000B00F0F9
:103B2000FBF86078032804D0062813D010284CD165
:103B300025E0E178A07801EB00266179207901EB9E
:103B40000027F019962800D940E03946304600F0A9
:103B50004FF83BE0E178A07801EB0026617920790D
:103B600001EB0025962E00D930E0204921F81650AF
:103B70004146204600F092F84FF0010B26E0E17834
:103B8000A07801EB00266179207901EB0027F0197C
:103B9000962800D91AE000250EE0082000EB450029
:103BA000215C072000EB4500205C01EB002071192F
:103BB0000E4A22F811006D1CBD42EED33946304644
:103BC00000F082F84FF0010B00E000BF00BF00F0F2
:103BD0006BF9BBF1010F01D1FFF73EF900BFBDE862
:103BE000F09F0000340100200E0000201C3D00204A
:103BF0002DE9F041CCB006460F4600242548027856
:103C00002146641C01A8425403222146641C4254EC
:103C10007806020E2146641C01A8425400251FE0CC
:103C200071191D4A32F81100C11700EB1161C1F37F
:103C300007232146621CD4B201AA53547119164AB3
:103C400032F81100C11700EB11610912A0EB01213C
:103C5000CBB22146621CD4B201AA5354681CC5B22F
:103C6000BD42DDD3214601A8FCF77CFE8046C8F3A7
:103C700007222046611CCCB201A90A542146601CCF
:103C8000C4B201A800F80180214600F007F84CB04A
:103C9000BDE8F0810E0000201C3D002070B50446F8
:103CA0000D4608480068012803D12946204602F045
:103CB000A3FE04480068032803D12946204602F0E9
:103CC00003FF70BD340100207CB504460D46114849
:103CD00000788DF8000010208DF80100200A8DF882
:103CE0000200E0B28DF80300280A8DF80400E8B263
:103CF0008DF8050006216846FCF734FE0646300ABA
:103D00008DF80600F0B28DF8070008216846FFF72D
:103D1000C5FF7CBD0E00002010B54C4A12884C4BEC
:103D20001A804C4A12885A804B4A12884FF47F43BB
:103D300003EA0222494B1B881A43454B9A80484AA2
:103D40001288DA80474A12881A81474A12884FF44B
:103D50007F4303EA0222454B1B881A433C4B5A819E
:103D6000434A12889A81434A1288DA81424A128869
:103D70001A82002109E0414A32F81130344C01F135
:103D8000090224F812304A1C91B20329F3DB002007
:103D900013E000210DE03A4A02EBC00232F8112094
:103DA0000C2303EB80030B44294C24F813204A1CFA
:103DB00091B20429EFDB421C90B20728E9DB314ABB
:103DC0001288234BA3F850202F4A1288A3F85220C0
:103DD0002E4A1288A3F854202D4A1288A3F85620A0
:103DE0002C4A1288A3F858202B4A1288A3F85A208C
:103DF0002A4A1288A3F85C20002009E0284A32F8F9
:103E0000103000F12F02124C24F81230421C90B2F4
:103E10000828F3DB002012E04200521C214B9A5C80
:103E20004FF47F4303EA02221E4C14F810301A4369
:103E300000F13703064C24F81320421C90B23228BC
:103E4000EADB1422024BA3F8D22010BD0C000020A4
:103E50001C3D00200E000020120000201000002059
:103E60001400002016000020220000202400002062
:103E7000280000202A000020260000201800002032
:103E8000640100202C0000201E00002030000020D3
:103E90002E000020320000203400002036000020D8
:103EA000000200209C01002010B56A4A1288092AED
:103EB00003DC684A1288684B1A80664A5288FF2AD7
:103EC00003DC644A5288654B1A80624A9288012357
:103ED000B3EB122F04DB5F4A9288120A604B1A8000
:103EE0005C4A1279012A03DC5A4A12795D4B1A8026
:103EF000584AD288032A03DC564AD2885A4B1A8081
:103F0000544A12890623B3EB122F07DB514A127A67
:103F1000642A03DC4F4A1289544B1A804D4A528955
:103F20000523B3EB122F04DB4A4A5289120A504B85
:103F30001A80484A927A052A03DC464A927A4D4B07
:103F40001A80444A92894C4B1A80424AD2894B4B80
:103F50001A80404A128A4A4B1A80002009E03D4BE1
:103F600000F1090233F81220464B23F81020421CBE
:103F700090B20328F3DB002129E0002023E0A0B960
:103F80000C2202EB81020244324B33F81220012A48
:103F900017DC0C2202EB8102024433F812203A4B68
:103FA00003EBC10323F810200BE00C2202EB81028B
:103FB0000244284B33F81220334B03EBC10323F8A0
:103FC0001020421C90B20428D9DB4A1C91B2072968
:103FD000D3DB204AB2F85020082A04DC1D4AB2F88C
:103FE00050202A4B1A801B4AB2F85220002A09DDC1
:103FF000184AB2F85220642A04DC164AB2F8522059
:10400000234B1A80002022E000F13702114B33F8D5
:1040100012206323B3EB122F09DB00F137020D4BA3
:1040200033F81220130A4200521C1A4CA35400F118
:104030003702084B13F81220632A06DC00F137021E
:1040400013F81220134C04F81020421C90B23228AE
:10405000DADB10BD1C3D00200C0000200E0000200B
:104060001200002010000020140000201600002084
:104070002200002024000020280000202A00002028
:104080002600002018000020640100202C000020E1
:104090001E0000209C01002070B5002400253D4832
:1040A000006860B33C484078032804D0062808D054
:1040B000102817D10BE037480068082800D10124E8
:1040C00011E034480068082800D101240BE0324890
:1040D0004079092101EB40002E490968884200D14E
:1040E000012400E000BF00BF2C480088C0F10A0096
:1040F00000EB80002A490978884200DC0124294825
:10410000006860B328484078032804D0062808D007
:10411000102817D10BE023480068082800D101259A
:1041200011E020480068082800D101250BE01E4856
:104130004079092101EB40001A490968884200D101
:10414000012500E000BF00BF14480088C0F10A004C
:1041500000EB800015490978884200DC0125012C1C
:104160000AD101220B4801680B48FFF7B5FC00207B
:10417000084908600A490870012D0AD1032209483C
:1041800001680948FFF7A8FC0020064908600749B4
:10419000087070BDFC000020D03400200C0000200E
:1041A0000801002004010020283700200A01002017
:1041B0002DE9F04F99B005460E4617469846DDF8B2
:1041C00088B000245F4802782146641C0DF8012065
:1041D00003222146641C0DF8012018222146641C8C
:1041E0000DF801202846E91705EB1161C1F30723FB
:1041F0002246641C0DF80230E91705EB1161091223
:10420000A5EB0121CBB22246641C0DF802304E49C9
:104210000888C11700EB1161C1F307232246641C13
:104220000DF8023048490888C11700EB11610912E6
:10423000A0EB0121CBB22246641C0DF802303046BF
:10424000F11706EB1161C1F307232146621CD4B2BA
:104250000DF80130F11706EB11610912A6EB0121EF
:10426000CBB22146621CD4B20DF801303846F917A2
:1042700007EB1161C1F307232146621CD4B20DF88C
:104280000130F91707EB11610912A7EB0121CBB23D
:104290002146621CD4B20DF8013040464FEAE87165
:1042A00008EB1161C1F307232146621CD4B20DF85B
:1042B00001304FEAE87108EB11610912A8EB012106
:1042C000CBB22146621CD4B20DF801304FF0000988
:1042D0001BE03BF81900C11700EB1161C1F3072384
:1042E0002146621CD4B20DF801303BF81900C11709
:1042F00000EB11610912A0EB0121CBB22146621C37
:10430000D4B20DF8013009F10109B9F1080FE0D379
:1043100021466846FCF726FB8246CAF30722204660
:10432000611CCCB20DF800200AF0FF022046611C8F
:10433000CCB20DF8002021466846FFF7AFFC19B05B
:10434000BDE8F08F0E0000202E00002000B5F5B073
:10435000FE48008800287DD17390FD48007840B168
:10436000FC480078FC490988884202D00020F849BE
:104370000870F748007810BB0020F8490880F8481A
:10438000008801280BD0F6480088022807D0F4489E
:104390000088032803D0F248008804280FD1ED4894
:1043A000F0490988405CEC49088008460088EE49DD
:1043B00008800120E64908700020EC490880E448A4
:1043C0000078012816D1E448007801220146729055
:1043D000FF20FEF71DF800B2E54908800846008876
:1043E00040B1DE48008840F00100DC49088002202E
:1043F000D7490870D648007802286FD1D74800788E
:1044000000F0010070B1D4480078C006000E729030
:10441000D748B0F9000071907299FFF72DFB00B2F8
:10442000D4490880D3480088D349CB4A128821F860
:1044300012000846C849098830F8110000B201236B
:1044400000221146729001F017F80020CB49088035
:10445000CB4900E068E00880CA490880C548008868
:10446000C94908800020739009E00021C64A73986A
:10447000401C22F810107398401C40B2739073983F
:104480000728F2DBB6480088032803D0B448008828
:1044900004280BD1BC480090BA480388B848028869
:1044A000B6480188B0480088FFF782FEAC48008813
:1044B000012803D0AA480088032802D10020A84977
:1044C0000880B2480088401EA6490988884206DD57
:1044D000A4480088401CA349088003E016E000209F
:1044E000A0490880AA480088062807DD0221A948BB
:1044F000FEF7A4FE0020A649088004E0A448008836
:10450000401CA34908800020914908709748008802
:10451000B0F57A7F07DD02208D49087000209E49A2
:1045200008709249088000BF8848008801287DD122
:104530000020739072908648007850B18548894970
:104540000988405C84490988884202D0002080495B
:1045500008707F48007810BB0020804908808048A0
:10456000008801280BD07E480088022807D07C48AC
:104570000088032803D07A48008804280FD17548A2
:1045800078490988405C7449088008460088764963
:10459000088001206E4908700020744908806C482A
:1045A0000078012819D16C480078022201467190E8
:1045B000FF20FDF72DFF00B26D49088008460088F6
:1045C00058B16648008840F0010064490880022024
:1045D0005F4908700020654908800020729042E021
:1045E0007298801C5A490978884238D16B49729870
:1045F00031F8300001282DD1574800787190729819
:10460000F830C0B270900146FF20719AFEF792F91F
:1046100001B27298401C564A22F810107298401C41
:10462000114631F81000D0B1729800E021E3401C2F
:10463000012101FA00F049490988084381B247483D
:10464000018043480078401C4149087000204749D8
:10465000088004E03E480078401C3D49087072988C
:10466000401C40B2729072980728B9DB3848007835
:10467000092869D100206C906D901FE037480088B0
:104680006D99084100F00100A0B133490988082262
:104690006D9802FB0100C0B235496B906D9831F9FD
:1046A00010006A906B99FFF7E7F901B2314A6D98F3
:1046B00022F810106D98401CC0B26D906D980828BB
:1046C000DCDB2C48B0F90E003B90FBF7F3FE6B915E
:1046D0006A903248808E3B90FBF7FDFE69916890AE
:1046E0002E48408E3B90FBF7F6FE6791669021487E
:1046F000B0F90C003B90FBF7DDFE65916490274814
:10470000808D3B90FBF7E7FE639162902348408DDC
:104710003B90FBF7E0FE619160901648B0F90A000B
:104720003B90FBF7C7FE5F915E901C48808C3B90EE
:10473000FBF7D1FE5D915C901848408C3B90FBF7F5
:10474000CAFE5B915A902BE07DE200001000002031
:104750004B0000209C010020900000202E00002033
:104760002C00002044000020300000209200002097
:10477000300500208A0600201002002032000020B0
:104780003400002036000020000200201E0000201F
:1047900094000020000C014048000020640100202B
:1047A000FE48B0F908003B90FBF784FE5991589001
:1047B000FB48808B3B90FBF78EFE57915690F84854
:1047C000408B3B90FBF787FE55915490F348B0F92E
:1047D00006003B90FBF76EFE53915290F048808AA2
:1047E0003B90FBF778FE51915090ED48408A3B900A
:1047F000FBF771FE4F914E90E848B0F904003B90F2
:10480000FBF758FE4D914C90E54880893B90FBF7B3
:1048100062FE4B914A90E24840893B90FBF75BFE79
:1048200049914890DD48B0F902003B90FBF742FE09
:1048300047914690DA4880883B90FBF74CFE4591C3
:104840004490D74840883B90FBF745FE4391429007
:10485000D248B0F900003B90FBF72CFE419140900C
:10486000D04840883B90FBF736FECDE93E01CD486D
:1048700000883B90FBF72FFECDE93C016EA9CA48AA
:104880000078C0F3C010CDE93A016B996A98CDE980
:10489000380169996898CDE9360167996698CDE93C
:1048A0003401C1480078C0F3801032906599649853
:1048B000CDE9300163996298CDE92E016199609844
:1048C000CDE92C01B8480078C0F340102A905F99D8
:1048D0005E98CDE928015D995C98CDE926015B9948
:1048E0005A98CDE92401B0480078C0F30010229016
:1048F00059995898CDE9200157995698CDE91E014C
:1049000055995498CDE91C01A7480078C0F3C00020
:104910001A9053995298CDE9180151995098CDE9C0
:1049200016014F994E98CDE914019F480078C0F3C5
:10493000800012904D994C98CDE910014B994A98FE
:10494000CDE90E0149994898CDE90C0196480078C7
:10495000C0F340000A9047994698CDE9080145996F
:104960004498CDE9060143994298CDE904018E4867
:10497000007800F00100029041994098CDE90001D3
:104980003CA80FC800F00CFE6C906C98D0B3864821
:10499000008820F4807184480180002083490880C9
:1049A00083490880834908808349098801EB4101D4
:1049B000824A22F811008049098801EB410102EB8B
:1049C000410148807C49098801EB410102EB41012A
:1049D0008880724800887A490880002073901CE023
:1049E0006F49739831F8300001280CD16B497398E6
:1049F000401C31F8100081B2714A7398401C22F8B3
:104A0000101006E00DE000216D4A7398401C22F85A
:104A100010107398401C40B2739073980728DFDB26
:104A2000B1E06148008840F480705F4908806548C3
:104A30000088FBF750FD6B916A9063480088FBF794
:104A40004AFD699168905C4800784006000E02902B
:104A50006B996A98CDE900016F996E98679166909D
:104A6000699B689AFEF7A0FF6F916E905548008889
:104A7000FBF731FD6B916A9053480088FBF72BFDE3
:104A8000699168904C4800784000401CC0B2029088
:104A90006B996A98CDE90001719970986791669059
:104AA000699B689AFEF780FF719170906F996E987C
:104AB0006B916A90FBF730FD3C49088071997098C2
:104AC0006B916A90FBF728FD39490880002039492D
:104AD0000880364800883849098801EB4101374A87
:104AE00022F81100324800883349098801EB41015E
:104AF00002EB410148802F4800882F49098801EBCB
:104B0000410102EB41018880244800882C4908803B
:104B1000002073901BE02249739831F8300001287F
:104B20000BD11E497398401C31F8100081B2244A01
:104B30007398401C22F8101005E00021204A739859
:104B4000401C22F810107398401C40B27390739868
:104B50000728E0DB1848008800EB4001174800EB0D
:104B60004100408800B26B901348008800EB400081
:104B7000124931F8100000B202236A900146002069
:104B80006B9A00F079FC11480088032803D00F4885
:104B90000088042826D10A48009019E08A060020DF
:104BA00064010020180000202E00002032000020A8
:104BB000340000203600002090000020D8020020A1
:104BC000000200202A000020280000202C000020E5
:104BD00029480388294802882948018829480088EB
:104BE000FFF7E6FA28480088012803D02648008805
:104BF000032802D100212448018024480088062887
:104C000007DD02212248FEF719FB00201F4908801A
:104C100004E01E480088401C1C49088000201D49F3
:104C200008701D480088401E1C490988884206DD1E
:104C30001A480088401C81B21848018002E0002018
:104C40001649088000BF1648008840F2DC518842AF
:104C50000EDD1048007858B10E480078401C0D4910
:104C6000087000200F4908700F4908700C4908802F
:104C700000BF75B000BD00003600002034000020E9
:104C800032000020300000202C0000209400002082
:104C9000000C01404B0000201E00002044000020BA
:104CA00092000020480000204D00002010B52F4841
:104CB000007804280CD000202D4908802D4909884F
:104CC000F82202EB1121C8B2FDF796F92A490870C3
:104CD0002648007804282CD1002426490988F82287
:104CE00002EB1121C8B2002223490978FDF790FB9D
:104CF0000446ECB11F490988F82202EB1121C8B221
:104D00002246FF21FDF704FF1C480088062807DD26
:104D100002211B48FEF792FA00201849088004E09F
:104D200016480088401C1549088000200F4908706B
:104D300000BF0F48008840F2DC51884214DD0B4868
:104D40000078042809D10B490988F82202EB1121C7
:104D5000C8B20022FF21FDF7DBFE002003490870E6
:104D6000084908700249088010BD00004A00002070
:104D700092000020160000204C000020940000202B
:104D8000000C01404800002030B58FB000245B4982
:104D90000878FDF7A3F904465948008806280FDD76
:104DA0005848408802B25748008801B256480388E4
:104DB0005648008800B200F05FFB00205049088090
:104DC000022C79D100255048008801282AD150A111
:104DD00003C9CDE90D01504903C9CDE909011421E9
:104DE00004A8FBF7B8F9494802884CA10BA801F0C8
:104DF000D7FE0DA904A8FBF7B9F90BA904A8FBF786
:104E0000B5F909A904A8FBF7B1F904A8FBF7BAF9A9
:104E100085B2294604A801F0EFFD294604A801F057
:104E200053FE00BF38480088022844D13CA00068E7
:104E30000E903949083103C9CDE90A0139A000684B
:104E400009903549103103C9CDE90501142168469F
:104E5000FBF781F92B48028830A10CA801F0A0FED5
:104E60000EA96846FBF782F90CA96846FBF77EF9A4
:104E70000AA96846FBF77AF92248428827A107A8C1
:104E800001F08EFE09A96846FBF770F907A968468C
:104E9000FBF76CF905A96846FBF768F96846FBF76C
:104EA00071F985B22946684601F0A6FD2946684693
:104EB00001F00AFE00BF00BF9CB100201A49088023
:104EC0001A480088032807DD02211948FEF7B6F9C1
:104ED00000201649088004E014480088401C13494B
:104EE00008801148008840F2DC51884204DD00202F
:104EF000104908700C4908800FB030BD1600002022
:104F0000420000203C000020380000203A00002031
:104F1000444953543D0000004487000825640000C4
:104F2000583D0000593D00009200002094000020F0
:104F3000000C01404900002000B58BB0012108465B
:104F400000F076FE1448FCF787FF144800901448E0
:104F50000190102002904FF41670039000200490EE
:104F60008020059000200690079008904FF4805014
:104F7000099000200A9069460748FDF71CF80122B5
:104F800002210548FDF70EF8012280210348001F89
:104F900001F068FC0BB000BD440002400438014041
:104FA0003E05002000B58BB00121084600F040FE10
:104FB0001448FCF751FF1448009014480190102049
:104FC00002904FF41670039000200490802005900A
:104FD00000200690079008904FF480500990002020
:104FE0000A9069460748FCF7E6FF012202210548BE
:104FF000FCF7D8FF012280210348001F01F032FC9A
:105000000BB000BD1C000240044800403E050020DB
:1050100010B5044600210648FCF712FF214604485B
:10502000FCF7E7FF01210248FCF70AFF10BD000072
:105030004400024010B5044600210648FCF700FF7A
:1050400021460448FCF7D5FF01210248FCF7F8FE91
:1050500010BD00001C00024070B5002100230F228B
:10506000C47804B3154C246804F4E064C4F5E06427
:10507000210AC1F10403CA40447804FA03F1847898
:105080001440214309010E4C0678A155047804F020
:105090001F050124AC4005786D11AD0005F1E02538
:1050A000C5F8004109E0047804F01F050124AC4074
:1050B000044D0678761145F8264070BD0CED00E0F1
:1050C00000E400E080E100E002490143024A11608F
:1050D000704700000000FA050CED00E010B5002854
:1050E00007DA0A07140E054A00F00F031B1FD454F9
:1050F00003E00A07130E024A135410BD18ED00E036
:1051000000E400E070B5002418E004F1B0000021D4
:1051100000F0FDF80021084600F0F9F80021102009
:1051200000F0F5F8002505E00121002000F0EFF87F
:10513000681CC5B2802DF7DB601CC4B2082CE4DB10
:1051400070BD10B5C82001F05EFF0021AE2000F058
:10515000DEF80021402000F0DAF80021B02000F055
:10516000D6F80021C82000F0D2F80021812000F0FC
:10517000CEF80021FF2000F0CAF80021A12000F0A5
:10518000C6F80021A62000F0C2F80021A82000F0F7
:10519000BEF800211F2000F0BAF80021D32000F053
:1051A000B6F80021084600F0B2F80021D52000F042
:1051B000AEF80021F02000F0AAF80021D92000F07C
:1051C000A6F80021222000F0A2F80021DA2000F049
:1051D0009EF80021022000F09AF80021DB2000F068
:1051E00096F80021492000F092F800218D2000F06F
:1051F0008EF80021142000F08AF80021AF2000F082
:1052000086F8FFF77FFF10BD70B504460D4605F127
:10521000B000002100F07BF8102141EA14100021B9
:1052200000F075F804F00F00002100F070F870BD78
:105230002DE9F04707460E46904699460025002482
:10524000A8F12000C5B27F2F02DD0027B01CC6B236
:10525000B9F1100F24D131463846FFF7D5FF0024AD
:1052600008E004EB0511194A505C012100F04FF8E9
:10527000601CC4B2082CF4DB701CC1B23846FFF7C6
:10528000C3FF002409E004EB051108310F4A505C0C
:10529000012100F03CF8601CC4B2082CF3DB12E0E2
:1052A00031463846FFF7B0FF00240AE005EB450120
:1052B000074A02EB4101085D012100F028F8601C5B
:1052C000C4B2062CF2DBBDE8F0870000C08B0008FA
:1052D000988900082DE9F04104460F461546984686
:1052E00000260FE0AA5D434639462046FFF7A0FF9F
:1052F00004F10800C4B2782C02DD0024B81CC7B247
:10530000701CC6B2A85D0028ECD1BDE8F08170B574
:1053100004460D461DB1E0B201F02CFC02E0E0B203
:1053200001F012FC70BD000000B587B03D48008858
:1053300020B1012809D0022814D10DE007233AA298
:1053400000210846FFF7C6FF0CE007233BA200211F
:105350000846FFF7BFFF05E007233DA200210846EE
:10536000FFF7B8FF00BF2F48008820B101281FD0E9
:10537000022854D13BE03B4903C9CDE90501002097
:105380000090019002903848027838A103A801F0FB
:1053900007FC05A96846FAF7E9FE03A96846FAF78B
:1053A000E5FE07236A4601210020FFF793FF36E060
:1053B0002C49083103C9CDE9050100200090019076
:1053C000029029480088020A28A103A801F0E8FBFE
:1053D00005A96846FAF7CAFE03A96846FAF7C6FEA9
:1053E00007236A4601210020FFF774FF17E020A180
:1053F00003C9CDE905010020009001900290002230
:105400001AA103A801F0CCFB05A96846FAF7AEFE85
:1054100007236A4601210020FFF75CFF00BF00BFA1
:1054200007B000BD140000204D4F44453A54414799
:105430002020202020202020202000004D4F444507
:105440003A5355422D414E43484F52200000000030
:105450004D4F44453A4D414A2D414E43484F52200D
:10546000000000005C870008160000202564000092
:1054700049443D5858000000F0B58FB005460E462F
:1054800017461C469CB914223F490AA8FAF74AFE5F
:10549000142105A8FAF75FFE0AA905A8FAF766FE27
:1054A000072305AA02210020FFF714FF6AE0012C60
:1054B00026D1002D66D035A103C9CDE90D013249B1
:1054C000143103C9CDE90901142104A8FAF743FEF8
:1054D0002A4630A10BA801F063FB0DA904A8FAF736
:1054E00045FE0BA904A8FAF741FE09A904A8FAF79A
:1054F0003DFE072304AA02210020FFF7EBFE41E056
:10550000022C3FD10EB9002F3CD023A000680E9092
:105510001D491C3103C9CDE90A0120A0006809908A
:105520001949243103C9CDE9050114216846FAF768
:1055300012FE324617A10CA801F032FB0EA96846F4
:10554000FAF714FE0CA96846FAF710FE0AA9684695
:10555000FAF70CFE3A460FA107A801F021FB09A9B2
:105560006846FAF703FE07A96846FAF7FFFD05A9A2
:105570006846FAF7FBFD07236A4602210020FFF781
:10558000A9FE00BF0FB0F0BD6C870008444953541A
:105590003D00000025640000583D0000593D00001A
:1055A0001FB59CB000201B901A901990189017906E
:1055B000FE4ADDE91C10C2E90010DDE91E01C2E966
:1055C0000201DDE92201C2E90401DDE92610C2E998
:1055D0000610DDE92810C2E90810DDE92A01C2E958
:1055E0000A01DDE92E10C2E90C10DDE93001C2E943
:1055F0000E01DDE93210C2E91010DDE93610C2E912
:105600001210DDE93810C2E91410DDE93A01C2E9EF
:105610001601DDE93E10C2E9181040994198C2E92F
:105620001A1042994398C2E91C1046994798C2E95A
:105630001E10783249994898C2E902014A994B985C
:10564000C2E9041018324F994E9803C2083A509993
:105650005198C2E9021053995298C2E904011832D4
:105660005799569803C2083A59995898C2E90201C5
:105670005B995A98C2E90401CD49249808802C9876
:105680004880349888803C98C880449808814C9819
:105690004881549888815C98C8810020199053E211
:1056A000C349199831F8100001287CD11998401C81
:1056B00080B2189040E2BE49189831F810000128D5
:1056C00072D11898401C80B217902DE2B8491798F3
:1056D00031F81000012868D100201690189800EBCE
:1056E0004000B24901EBC001D1E90201CDE90A0154
:1056F000199800EB4000AD4901EBC001D1E902016E
:10570000CDE90801DDE90A23FAF7E4FD00224FF0B4
:105710008043CDE90C0102F009FACDE91001189897
:1057200000EB4000A14901EBC00103C9CDE90A012A
:10573000199800EB40009D4901EBC00103C9CDE978
:105740000801DDE90A23FAF7C5FD00224FF0804386
:10575000CDE90C0102F0EAF9CDE90E01DDE91023F3
:10576000FAF717FDCDE9120102F033FFCDE914017C
:10577000189800EB40008D4901EBC001D1E904010C
:10578000CDE91001DDE91423FAF703FDCDE912019B
:10579000199800EB4000854901EBC001D1E90401F3
:1057A00002460B4602E0CBE1C2E1B9E1CDE91001CE
:1057B000DDE91201FAF720FF24D2199800EB40002E
:1057C0007A4901EBC001D1E90401CDE91001DDE91D
:1057D0001423FAF7DEFCCDE91201189800EB400023
:1057E000724901EBC001D1E9040102460B46CDE943
:1057F0001001DDE91201FAF7FFFE03D21698401CF2
:10580000C0B21690179800EB4000684901EBC00148
:10581000D1E90201CDE90A01199800EB4000634982
:1058200001EBC001D1E90201CDE90801DDE90A235C
:10583000FAF750FD00224FF08043CDE90C0102F051
:1058400075F9CDE91001179800EB4000574901EBBD
:10585000C00103C9CDE90A01199800EB4000534982
:1058600001EBC00103C9CDE90801DDE90A23FAF71C
:1058700031FD00224FF08043CDE90C0102F056F9D2
:10588000CDE90E01DDE91023FAF783FCCDE9120121
:1058900002F09FFECDE91401179800EB4000434948
:1058A00001EBC001D1E90401CDE91001DDE91423C8
:1058B000FAF76FFCCDE91201199800EB40003B4963
:1058C00001EBC001D1E9040102460B46CDE910010C
:1058D000DDE91201FAF790FE24D2199800EB40009E
:1058E000324901EBC001D1E90401CDE91001DDE944
:1058F0001423FAF74EFCCDE91201179800EB400093
:105900002A4901EBC001D1E9040102460B46CDE969
:105910001001DDE91201FAF76FFE03D21698401C60
:10592000C0B21690179800EB4000204901EBC0016F
:10593000D1E90201CDE90A01189800EB40001B49AA
:1059400001EBC001D1E90201CDE90801DDE90A233B
:10595000FAF7C0FC00224FF08043CDE90C0102F0C1
:10596000E5F8CDE91001179800EB40000F4901EB75
:10597000C00103C9CDE90A01189800EB40000B49AA
:1059800001EBC00103C9CDE90801DDE90A23FAF7FB
:10599000A1FC00224FF08043CDE90C0102F0C6F8D3
:1059A000CDE90E01DDE9102304E00000584200209B
:1059B00018430020FAF7EDFBCDE9120102F009FED1
:1059C000CDE91401179800EB4000914901EBC001AB
:1059D000D1E90401CDE91001DDE91423FAF7D9FB7F
:1059E000CDE91201189800EB4000894901EBC00194
:1059F000D1E9040102460B46CDE91001DDE91201AF
:105A0000FAF7FAFD24D2189800EB4000804901EB28
:105A1000C001D1E90401CDE91001DDE91423FAF751
:105A2000B8FBCDE91201179800EB4000784901EB73
:105A3000C001D1E9040102460B46CDE91001DDE9C0
:105A40001201FAF7D9FD03D21698401CC0B2169085
:105A50001698032863D16F491A9801EB00100E9035
:105A6000179800EB40006A4901EBC00041690069EA
:105A7000CDE90C01179800EB4000654901EBC0002F
:105A8000C1688068CDE90A01179800EB40006049C1
:105A900001EBC00003C8CDE90801189800EB4000F5
:105AA0005B4901EBC00041690069CDE90601189826
:105AB00000EB4000564901EBC000C1688068CDE9A9
:105AC0000401189800EB4000514901EBC00003C8E5
:105AD000CDE90201199800EB40004D4901EBC000EF
